:020000022000DC
:1070000000000120197202000172020003720200E6
:1070100005720200077202000972020000000000FF
:107020000000000000000000000000000B720200E1
:107030000D720200000000000F720200E1DF030089
:10704000CD3D0400137202008D3E0400DD94020069
:10705000955D0400B9810200FD7D0400B943040080
:10706000C9700400E1700400F9700400E9630400D1
:1070700013720200ED8A0200137202001372020002
:1070800095B00400A1920400137202001372020072
:10709000137202001372020051CF04001372020037
:1070A00013720200137202001171040029710400AE
:1070B0007172040013720200000000000000000062
:1070C0001372020089720400A1720400137202009C
:1070D0004DD70400137202001372020013720200F3
:1070E0001372020013720200B9D9040000000000FC
:1070F0000000000013720200000000001372020082
:10710000000000000000000000000000000000007F
:10711000000000000000000000000000000000006F
:10712000000000000000000000000000000000005F
:10713000000000000000000000000000000000004F
:10714000000000000000000000000000000000003F
:10715000000000000000000000000000000000002F
:10716000000000000000000000000000000000001F
:10717000000000000000000000000000000000000F
:1071800000000000000000000000000000000000FF
:1071900000000000000000000000000000000000EF
:1071A00000000000000000000000000000000000DF
:1071B00000000000000000000000000000000000CF
:1071C00000000000000000000000000000000000BF
:1071D00000000000000000000000000000000000AF
:1071E000000000000000000000000000000000009F
:1071F000000000000000000000000000000000008F
:10720000FEE7FEE7FEE7FEE7FEE7FEE7FEE7FEE756
:10721000FEE7FEE700F002B8FFF7FCBF0F484FF0B3
:107220000701884385460E4880470E48016841F4AF
:1072300070010160BFF34F8FBFF36F8F00F01AB87A
:1072400009480A490A4A884207D0521A05D00378E9
:1072500001300B700131013AF9D170470000012073
:1072600025F3030088ED00E0340C050070300020A9
:1072700084300020354936480A1A02D0072291434B
:107280008D46344934480A1A06D00722914381F3C7
:107290000988022282F3148830483149314A00F0CB
:1072A00044F831483149324A00F03FF83148324918
:1072B000324A00F03AF832483249334A00F035F8A1
:1072C00032483349334A00F030F833483349344ABE
:1072D00000F02BF833483449344A00F026F834489B
:1072E0003449002200F02CF833483449002200F0E1
:1072F00027F833483349091A082902DB00220260C3
:107300004160314A90471F481F49884205D00268B2
:10731000043003B4904703BCF7E700208646EC46F0
:1073200000200021294A9047FEE7884207D0521AE0
:1073300005D0037801300B700131013AF9D1704763
:10734000884202D002700130FAE770470000012045
:1073500000C000200000012000000120C0B905008D
:10736000843000203C350020D0730200D07302002E
:1073700060090500C0B90500843000208430002079
:10738000480C0500480C0500480C0500480C050099
:10739000480C0500480C0500480C0500480C050089
:1073A000C0B9050078BE05003C3500203C35002002
:1073B0003C350020E4700020E4700020E8700020DC
:1073C000E8700020E89000204172020085E8030088
:1073D00084B001900091019B002B0AD1009B012BEE
:1073E00003D1C0238DF80F300FE080238DF80F30CC
:1073F0000BE0019B0133009A9A4203D140238DF8A0
:107400000F3002E000238DF80F309DF80F30184642
:1074100004B0704700B58BB0039002910192002335
:107420000893039B002B02D0019B002B01D10E235C
:1074300041E0039B1B680793039B1B68002B01D152
:107440000E2338E0002309932CE0039B9B68194628
:107450000998FFF7BDFF03468DF81B30019B1A68A2
:10746000089BD31A0493079B186804AB9DF81B1064
:10747000029A00F066F80590059B002B01D0059B51
:1074800019E0049B089A13440893029B002B03D035
:10749000049B029A13440293079B04330793099BAE
:1074A00001330993039B9B68099A9A42CDD3019BB0
:1074B000089A1A60002318460BB05DF804FB82B0EE
:1074C00001900091019B9A68019B5B689A4201D3ED
:1074D00004230DE0019B1A68019B9B689B001344E9
:1074E000009A1A60019B9B685A1C019B9A600023BA
:1074F000184602B0704784B001900091019B03933D
:10750000039B1ABA009B1A600423184604B0704704
:1075100084B0019006230393019B5B781A46019B7C
:107520001B7A13441A46039B13440393019B5B7815
:10753000002B02D0039B01330393039B184604B036
:10754000704700B58BB00390019200930B468DF805
:107550000B3000230993039B002B01D10E2391E0F4
:107560000398FFF7D5FF089000230793019B002B9A
:1075700060D09DF80B3023F0C003002B01D007230F
:1075800080E0009B1B68089A9A4201D9042379E0A5
:10759000019B0693019B01330193069B9DF80B20F1
:1075A0001A70069B1A78039B1B781343DAB2069B6A
:1075B0001A70019B5A1C0192039A127A1A70019B4D
:1075C0000993019B04330193039B5B78002B0CD040
:1075D000019B5A1C0192039A52781A70069B1B78E1
:1075E00043F00803DAB2069B1A70039BD968039B29
:1075F0001B7A1A46019827F0E3FC039B1B7A1A4674
:10760000019B13440193039B5B78002B0DD0039BDC
:107610005968039B5B781A46019827F0D1FC039BBD
:107620005B781A46019B13440193009B1A68089BE0
:10763000D31A0593039B1B78002B02D100230593DB
:1076400012E0039B1B69002B0CD0039B1B69039A60
:10765000506905AA019998470790079B002B03D012
:10766000079B0FE00E230DE0019B002B04D0059B30
:1076700009991846FFF73FFF059A089B1A44009B9B
:107680001A60002318460BB05DF804FB00B583B008
:1076900003468DF807309DF80730002B03D10020FA
:1076A00000F0DCFC00E000BF00BF03B05DF804FBAD
:1076B00000B583B00C4B0D4A5A600B4B00221A6088
:1076C0001BF02AFC0190019B852B02D10023019322
:1076D00004E0019B002B01D0032300E0019B18462E
:1076E00003B05DF804FB00BF3C3500208D7602003E
:1076F00000B583B00190019B1B68022B02D0042BC4
:1077000004D006E005481BF099FC02E01BF0F4FCF5
:1077100000BF00BF03B05DF804FB00BF3C35002094
:1077200082B003468DF807309DF90730002B0CDB43
:107730009DF8073003F01F0205499DF907305B09EA
:10774000012000FA02F241F8232000BF02B0704786
:1077500000E100E082B003468DF807309DF9073064
:10776000002B0DDB9DF8073003F01F0206499DF941
:1077700007305B09012000FA02F2603341F8232050
:1077800000BF02B0704700BF00E100E082B00346D6
:1077900000918DF807309DF90730002B0ADB009B24
:1077A000DAB20C499DF907305201D2B20B4483F88A
:1077B00000230BE0009BDAB207499DF8073003F085
:1077C0000F03043B5201D2B20B441A7600BF02B041
:1077D000704700BF00E100E000ED00E000B583B0BD
:1077E00003460A468DF8073013468DF806309DF89B
:1077F0000630012B03D99DF80630032B0BD99DF8D9
:107800000630042B03D99DF80630072B03D908490D
:107810006B200EF097FD9DF806209DF9073011466C
:107820001846FFF7B3FF00BF03B05DF804FB00BFCD
:10783000480C050000B583B003468DF807309DF96C
:1078400007301846FFF76CFF00BF03B05DF804FB7C
:1078500000B583B003468DF807309DF90730184610
:10786000FFF778FF00BF03B05DF804FB82B003466A
:107870008DF807309DF8073003F1804303F5A043EE
:1078800001221A6000BF02B0704782B00346ADF813
:107890000630BDF8063003F1804303F5A043002213
:1078A0001A60BFF34F8F00BF00BF02B0704782B0B5
:1078B0000346ADF80630BDF8063003F1804303F50A
:1078C000A0431B68002B14BF01230023DBB2184622
:1078D00002B0704782B00190034A019BC2F80433A2
:1078E00000BF02B0704700BF0050004082B001905E
:1078F000064BD3F80423019B1340002B14BF012334
:107900000023DBB2184602B0704700BF00500040B1
:1079100082B00190034A019BC2F8083300BF02B055
:10792000704700BF00500040024BD3F804341846A3
:10793000704700BF0050004082B00190034A019B95
:10794000C2F8043400BF02B0704700BF00500040CE
:10795000024BD3F80C341846704700BF005000406B
:1079600082B00190034A019BC2F80C3400BF02B000
:10797000704700BF00500040044BD3F82034DBB206
:1079800003F00103DBB21846704700BF005000400F
:10799000024BD3F83C34DBB218467047005000402D
:1079A00082B00190044A019BC3F31303C2F8083567
:1079B00000BF02B0704700BF0050004082B00346D5
:1079C0008DF80730034A9DF80730C2F80C3500BF28
:1079D00002B0704700500040024BD3F810351846F3
:1079E000704700BF0050004082B001900B46ADF8D8
:1079F0000230074A019BC2F81035BDF80230044A34
:107A0000C3F30803C2F8143500BF02B0704700BFCB
:107A100000500040044BD3F81C359BB2C3F30B035A
:107A20009BB21846704700BF0050004082B003462A
:107A3000ADF80630BDF80630034AC3F30B03C2F8B5
:107A40001C3500BF02B070470050004084B00346B0
:107A50008DF807300A4BD3F824359BB2C3F30B03E0
:107A6000ADF80E309DF80730002B01D0102300E058
:107A70000023BDF80E20D31A9BB2184604B07047FD
:107A80000050004084B001900B468DF803309DF803
:107A90000330C02B02D09DF8033000E040238DF866
:107AA0000F309DF80F30002B29D09DF80F30802B20
:107AB00012D1019B1B781A04019B01331B781B0216
:107AC0001343019A0232127811461E4A0B43C2F840
:107AD0009835019B03330193019B1B781A04019B8A
:107AE00001331B781B021343019A023212781146AC
:107AF000144A0B43C2F89435019B03330193019B55
:107B00001B781A06019B01331B781B041A43019B47
:107B100002331B781B021343019A03321278114679
:107B2000084A0B43C2F89035064BD3F8A03523F032
:107B3000C0029DF80F3003491343C1F8A03500BFC0
:107B400004B070470050004082B003468DF8073003
:107B5000064BD3F8A03523F01F029DF807300349E8
:107B60001343C1F8A03500BF02B070470050004079
:107B700082B00190019BD3F81035DBB2184602B0F9
:107B800070470000F0B587B001900B468DF80330C8
:107B90009DF803300593019B00221E4617464FF0C7
:107BA00000024FF000033B0143EA167332010599CE
:107BB000C1F12006A1F1200022FA01F403FA06F631
:107BC000344323FA00F0044323FA01F5CDE90245DA
:107BD000DDE90223012B04D3044940F2B9200EF061
:107BE000B1FB029B184607B0F0BD00BF740C050046
:107BF00000B583B001900091019B1B681846FFF708
:107C0000B7FF034619460098FFF7BCFF0346184626
:107C100003B05DF804FB08B50320FFF7CFFE042096
:107C2000FFF792FF00BF08BD00B583B003468DF893
:107C300007309DF80730002B04D04FF48050FFF739
:107C4000AFFE04E0044BDB681846FFF7A9FE00BF57
:107C500003B05DF804FB00BF4435002000B587B0D9
:107C600003468DF80730344B1B7A002B59D19DF811
:107C70000730DBB2032B09D100F04EF90346002B8D
:107C800001D0022300E001238DF807309DF8073072
:107C9000DBB2012B27D0022B45D1284B5B7ADBB21C
:107CA00083F00103DBB2002B3FD0234B00225A723A
:107CB000214B00229A72204B01221A721E481FF09B
:107CC0001BF91D481FF094F81C4B01225A72022325
:107CD00002931A4B5B68002B27D0184B5B6802AAF3
:107CE0001046984721E0154B5B7ADBB2002B1ED083
:107CF0000820FFF7BBFD4FF48F60FFF709FE0F4B25
:107D000000225A72042302930120FFF78DFF0B4BD0
:107D10005B68002B0BD0094B5B6802AA10469847A2
:107D200005E000BF04E000BF02E000BF00E000BFCC
:107D300007B05DF804FB00BF84300020443500200C
:107D400008B5114B1B78002B09D00F4B00221A707D
:107D50000E4B00221A720320FFF780FF13E00B4B3B
:107D60005B7A002B0FD0094B9B7A002B0BD00020A5
:107D7000FFF77CFD044B01221A7004481FF0BCF889
:107D800002481FF035F808BD54350020843000202B
:107D900000B583B003460091ADF80630BDF806305B
:107DA000B3F5A07F08D1064B01229A7204481FF058
:107DB00061F8FFF7C5FF00E000BF03B05DF804FB0A
:107DC0008430002000B587B003AB00221A605A60EF
:107DD00004238DF80C3006238DF80F3003AB0E4AC8
:107DE00019460E481EF094FE0590059B002B01D00D
:107DF000059B0DE04FF47A710848FFF7F9FE024643
:107E0000012300930123002104481FF0E7F8059B9C
:107E1000184607B05DF804FB917D02008430002015
:107E200000B583B00190054B1A68019B13401846BA
:107E3000FFF750FD00BF03B05DF804FB44350020A0
:107E400000B587B00190019B002B04D122494FF46B
:107E5000D0700EF077FA00230593204B1B7A002B8D
:107E600001D0082334E01D4B019A92E8030083E817
:107E70000300FFF7D0FE0520FFF7EAFC06210520EE
:107E8000FFF7ACFC0520FFF7D5FCFFF79BFF059043
:107E9000059B002B1BD103AB0721184600F01EF9F0
:107EA0000590059B002B04D00B4940F2B9100EF051
:107EB00049FA03ABC0211846FFF7E4FD074B012246
:107EC0001A72064B4FF48052DA60059B00E0059B66
:107ED000184607B05DF804FB980C050044350020F7
:107EE00008B50120FFF728FD0820FFF7BFFC044874
:107EF000FFF7F0FC0420FFF7EDFC00BF08BD00BF5A
:107F00008200080008B54FF0FF30FFF701FD0420A4
:107F1000FFF7ACFC00BF08BD00B583B0FFF738FD2C
:107F200003460193019B03F00103002B06D1019B43
:107F300003F00203002B01D1002300E001231846C7
:107F400003B05DF804FB000000B583B00190019B15
:107F5000002B04D10C4940F2FD100EF0F3F9019B07
:107F60005A68019B1B689BB219461046FFF73CFDFF
:107F70004FF48C60FFF754FF1C20FFF777FC00BF25
:107F800003B05DF804FB00BF980C050000B585B098
:107F900001900B468DF80330019B002B04D12D4935
:107FA0004FF402700EF0CEF9019B5B68002B04D1F8
:107FB000284940F209200EF0C5F900230393019BE4
:107FC0001B68002B01D109233FE000238DF80B3003
:107FD0000DF10B03184620F04DFD4FF48670FFF7AE
:107FE00066FC0346002B08D00820FFF77FFC034601
:107FF000002B02D01123039321E0174B01221A60BA
:10800000019B5A68019B1B689BB219461046FFF7FB
:10801000EBFC019B1B689BB2DB009BB21846FFF791
:1080200005FD9DF803301846FFF7C8FC0020FFF758
:10803000FBFD1820FFF7F4FE0C20FFF717FC9DF85E
:108040000B30184620F02CFD039B184605B05DF858
:1080500004FB00BF980C05001050004000B583B031
:1080600003468DF807309DF80730002B05D1074BEC
:1080700001225A72FFF764FE04E09DF807301846AB
:10808000FFF7F4FB03B05DF804FB00BF8430002071
:1080900000B583B003468DF807309DF80730292BD3
:1080A0000CD1FFF769FC0346012B03D12820FFF711
:1080B000DDFB08E02420FFF7D9FB04E09DF8073042
:1080C0001846FFF7D3FB0120FFF7AEFD4FF48F609A
:1080D000FFF71EFC00BF03B05DF804FB86B0019003
:1080E0000091009B042B07D0009B072B04D0009B22
:1080F0000A2B01D009235CE04FF08053D3F85034B1
:1081000005934FF08053D3F8543404934FF08053C9
:10811000D3F858340393059BDAB2019B1A70059B80
:108120001A0A019B0133D2B21A70059B1A0C019BEB
:108130000233D2B21A70019B0333049AD2B21A707E
:10814000009B042B34D0049B1A0A019B0433D2B247
:108150001A70049B1A0C019B0533D2B21A70049B4F
:108160001A0E019B0633D2B21A70009B0A2B11D152
:10817000019B0733039AD2B21A70039B1A0A019B20
:108180000833D2B21A70039B1A0C019B0933D2B286
:108190001A700DE0019B03331B78882B08D1019BDB
:1081A00003331A78019B033342F01102D2B21A70E2
:1081B0000023184606B0704700B597B000238DF82D
:1081C00057304FF48270FFF772FB0346002B0CD040
:1081D0000220FFF78BFB0346002B06D04FF4827082
:1081E000FFF753FB02238DF857304FF48470FFF7ED
:1081F0005EFB0346002B12D00420FFF777FB0346FB
:10820000002B0CD04FF48470FFF73FFB9DF85730E4
:10821000002B01D1012300E003238DF857309DF896
:108220005730002B04D09DF857301846FFF716FD45
:108230004FF48C70FFF73BFB0346002B46D04020E9
:10824000FFF754FB0346002B40D04FF48C70FFF730
:108250001CFB10AB00221A605A609A60DA6040235F
:10826000109300231193FFF7B7FB034613930120EC
:10827000FFF7ECFB0346DB089BB212934FF49470BC
:10828000FFF715FB0346002B13D04FF48060FFF778
:108290002DFB0346002B0CD0FFF75AFB034603F0DF
:1082A0000D0311934FF49470FFF7EFFA0D20FFF7D1
:1082B00057FB684B5B68002B04D0664B5B6810AAC9
:1082C000104698474FF48670FFF7DFFA4FF4887036
:1082D000FFF7EDFA0346002B1DD01020FFF706FB39
:1082E0000346002B17D04FF48870FFF7CEFA0CAB83
:1082F00000221A605A609A60DA6010230C931820EA
:10830000FFF706FB534B5B68002B04D0514B5B68B7
:108310000CAA104698474FF4A670FFF7C8FA034618
:10832000002B35D04FF40020FFF7E0FA0346002B76
:108330002ED04FF4A670FFF7A8FA4FF48C70FFF719
:10834000A4FA4FF49470FFF7A0FA4FF48670FFF789
:108350009CFA4FF48870FFF798FA0020FFF764FC4E
:108360000D20FFF7FDFA0120FFF7E6FA08AB002227
:108370001A605A609A60DA604FF400230893354B14
:108380005B68002B04D0334B5B6808AA1046984703
:108390004FF48E70FFF78BFA0346002B2FD080200E
:1083A000FFF7A4FA0346002B29D0FFF7BDFA14907B
:1083B0004FF48E70FFF769FA04AB00221A605A601E
:1083C0009A60DA6080230493149B03F00103002B6E
:1083D0000ED00120FFF7B0FA00238DF814301D4BAA
:1083E0005B68002B04D01B4B5B6804AA10469847BF
:1083F000149B23F0010314930120FFF79DFA4FF41F
:108400008670FFF754FA0346002B1ED00820FFF7B2
:108410006DFA0346002B18D04FF48670FFF735FA3B
:108420000C4B5B68002B10D008230093FFF7D4FAA5
:1084300003460293FFF7EEFA0346DB089BB2019373
:10844000044B5B686A461046984700BF17B05DF85A
:1084500004FB00BF4435002082B00190019B1B7AD1
:108460001A46019B1B6913440133184602B070473A
:1084700000B587B0039002910192039B1B7A002BF9
:1084800019D0039B1B7A03F04003002B13D1039BED
:108490001B7A5BB2002B0EDB039B5B68002B0AD0C0
:1084A000039B1B69002B06D0039BDB68002B02D0CB
:1084B000019B002B01D1072334E00398FFF7CCFF89
:1084C0000590029B002B29D0019B1B68059A9A42BC
:1084D00001D9042326E0039B1A7A039B1B78DB0156
:1084E000DBB21344DAB2029B1A70029B013302938F
:1084F000039B5968039B1B7A1A46029826F060FD7D
:10850000039B1B7A1A46029B13440293039BD96870
:10851000039B1B691A46029826F052FD019B059A9F
:108520001A600023184607B05DF804FB30DF70477F
:1085300000BF184631DF704700BF184600B585B050
:1085400003468DF8073000238DF80F300DF10F032F
:10855000184620F08FFA24F0CDFC034683F0010387
:10856000DBB2002B0DD00DF10703194609481BF0B3
:108570009FF808481BF078F80346002B01D000F064
:1085800083FA9DF80F30184620F08AFA00BF05B034
:108590005DF804FBD40A050000B585B00190002306
:1085A00003931C4B1B78002B01D085232EE0019BED
:1085B000002B01D1184B0193164B019A01331288FD
:1085C0001A8000238DF80B300DF10B03184620F0B4
:1085D00051FA24F08FFC034683F00103DBB2002B39
:1085E0000BD00E490E4800F0F7F90390039B002BC7
:1085F00001D0039B0AE000F02DFA064B01221A700D
:108600009DF80B30184620F04BFA039B184605B036
:108610005DF804FB58350020600D05003D85020023
:108620005935002000B583B001900F4B1B78012B0A
:1086300003D00E49A3200DF085FE24F05BFC034619
:10864000002B05D00198FFF771FF0346002B07D0E0
:1086500007481BF0B3F90346DAB2019B1A7000E039
:1086600000BF03B05DF804FB58350020000D050085
:10867000D40A050000B585B001900B468DF8033093
:1086800000230393274B1B78012B03D02649B720E7
:108690000DF058FE00238DF80A300DF10A0318463C
:1086A00020F0E8F924F026FC03468DF80B309DF805
:1086B0000B3083F00103DBB2002B09D09DF80330AF
:1086C0001A46019919481BF039F9039000F0C2F9D4
:1086D0009DF80A30184620F0E3F99DF80B30002B86
:1086E0000DD09DF8033019460198FFF723FF039042
:1086F000039B42F20702934201D105230393039B9C
:10870000022BC7D0039B002B06D0039B052B03D065
:108710000549D1200DF016FE039B184605B05DF803
:1087200004FB00BF58350020000D0500D40A0500E9
:1087300000B585B0034600918DF807309DF80730ED
:10874000002B02D0032B09D02AE0174B1B78012BFA
:1087500025D100F099F900F0ADF920E000238DF863
:108760000B300DF10B03184620F084F90E4B1B78EB
:10877000012B0ED10D490E4800F02EF90390039BFA
:10878000002B04D00B4940F207100DF0DBFD00F088
:1087900061F99DF80B30184620F082F900E000BF27
:1087A00000BF05B05DF804FB583500203D85020090
:1087B00059350020000D050082B003468DF80730C2
:1087C0009DF90730002B0CDB9DF8073003F01F02EA
:1087D00005499DF907305B09012000FA02F241F8D2
:1087E000232000BF02B0704700E100E082B00346E2
:1087F0008DF807309DF90730002B13DB9DF807300B
:1088000003F01F0209499DF907305B09012000FAB6
:1088100002F2203341F82320BFF34F8F00BFBFF394
:108820006F8F00BF00BF02B0704700BF00E100E0E3
:1088300082B0034600918DF807309DF90730002B78
:108840000ADB009BDAB20C499DF907305201D2B223
:108850000B4483F800230BE0009BDAB207499DF834
:10886000073003F00F03043B5201D2B20B441A76D7
:1088700000BF02B0704700BF00E100E000ED00E083
:1088800000B583B003460A468DF8073013468DF8CD
:1088900006309DF80630012B03D99DF80630032BD6
:1088A0000BD99DF80630042B03D99DF80630072B11
:1088B00003D908496B200DF045FD9DF806209DF970
:1088C000073011461846FFF7B3FF00BF03B05DF84D
:1088D00004FB00BF640D050000B583B003468DF8AE
:1088E00007309DF907301846FFF766FF00BF03B059
:1088F0005DF804FB00B583B003468DF807309DF9A1
:1089000007301846FFF772FF00BF03B05DF804FBA5
:1089100082B00190034A019BC2F8043300BF02B049
:10892000704700BF00D0004082B00190034A019B15
:10893000C2F8083300BF02B0704700BF00D000404B
:1089400082B003468DF807309DF8073003F180436D
:1089500003F5504301221A6000BF02B0704784B093
:108960000346ADF80630BDF8063003F1804303F549
:10897000504300221A60BDF8063003F1804303F52E
:1089800050431B680393039B00BF04B07047000073
:1089900082B00190054BD3F80022019BDB430349D1
:1089A0001340C1F8003200BF02B0704700D0004051
:1089B000024BD3F80835DBB21846704700D00040B0
:1089C000044BD3F80435034A43F00103C2F80435DD
:1089D00000BF704700D0004000B583B00190009107
:1089E000019B002B03D118493E200DF0ABFC009BEE
:1089F000002B03D114493F200DF0A4FC134B1B782E
:108A0000002B01D085231BE0114A009B1360019BC2
:108A10001B7803F00103DBB2002B01D0FFF7D0FF7E
:108A20000120FFF7B5FF019B5B7819460D20FFF78A
:108A300027FF0D20FFF750FF044B01221A7000237F
:108A4000184603B05DF804FB8C0D0500AC35002022
:108A5000B035002008B50A4B1B78012B03D009491B
:108A600056200DF06FFC4FF48070FFF778FF012067
:108A7000FFF74EFF0020FFF763FF00BF08BD00BFF8
:108A8000AC3500208C0D050008B5084B1B78012B78
:108A900003D007495E200DF055FC0120FFF744FF8D
:108AA0000420FFF74DFF00BF08BD00BFAC3500201C
:108AB0008C0D050008B50B4B1B78012B03D00A4920
:108AC00065200DF03FFC0120FFF72EFF0420FFF78B
:108AD00037FF0D20FFF70EFF024B00221A7000BF78
:108AE00008BD00BFAC3500208C0D050000B583B07B
:108AF0004FF48070FFF733FFFFF75AFF03468DF8FE
:108B00000730054B1B689DF807201046984700BFAB
:108B100003B05DF804FB00BFB035002082B003460F
:108B20008DF807309DF90730002B0CDB9DF80730DE
:108B300003F01F0205499DF907305B09012000FA87
:108B400002F241F8232000BF02B0704700E100E0CC
:108B500082B0034600918DF807309DF90730002B55
:108B60000ADB009BDAB20C499DF907305201D2B200
:108B70000B4483F800230BE0009BDAB207499DF811
:108B8000073003F00F03043B5201D2B20B441A76B4
:108B900000BF02B0704700BF00E100E000ED00E060
:108BA00082B00190019B03F06043B3F1005F0CBF02
:108BB00001230023DBB2184602B0704782B0019057
:108BC000019B1B0B5BB2184602B0704700B583B027
:108BD00003460A468DF8073013468DF806309DF897
:108BE0000630012B03D99DF80630032B0BD99DF8D5
:108BF0000630042B03D99DF80630072B03D908490A
:108C00006B200DF09FFB9DF806209DF90730114663
:108C10001846FFF79DFF00BF03B05DF804FB00BFDF
:108C2000EC0D050000B583B003468DF807309DF9C3
:108C300007301846FFF772FF00BF03B05DF804FB72
:108C400082B001900B468DF803309DF80330019AF5
:108C5000134401221A6000BF02B0704784B0019033
:108C60000B46ADF80230BDF80230019A13440022E1
:108C70001A60BDF80230019A13441B680393039BEA
:108C800000BF04B0704782B001900B46ADF80230CF
:108C9000BDF80230019A13441B68002B14BF012356
:108CA0000023DBB2184602B0704782B001900091F9
:108CB000019B009AC3F8042300BF02B0704782B042
:108CC00001900091019B009AC3F8082300BF02B0F5
:108CD000704782B00190019B0722C3F8002500BFB6
:108CE00002B0704784B00390029101920093039BFD
:108CF000029AC3F80825039B019AC3F80C25039B2D
:108D0000009AC3F8102500BF04B0704782B00190EC
:108D10000091009A019BC3F8242500BF02B0704760
:108D200084B0039002910192029A039BC3F84425F8
:108D3000039B019AC3F8482500BF04B0704784B074
:108D4000039002910192029A039BC3F83425039B7E
:108D5000019AC3F8382500BF04B0704784B0019071
:108D60000B468DF8033013468DF802309DF8023023
:108D7000002B14BF01230023DBB203939DF80330C3
:108D8000032B10D0032B13DC012B02D0022B05D0B8
:108D90000EE0039B43F0020303930AE0039B43F0BE
:108DA0000403039305E0039B43F00603039300E0F1
:108DB00000BF019B039AC3F8542500BF04B070475D
:108DC00082B001900B468DF803309DF80320019B83
:108DD000C3F8C02500BF02B0704782B00190019B6C
:108DE0000122C3F8502500BF02B0704782B0019045
:108DF000019B0022C3F8502500BF02B0704782B02B
:108E00000190019B0122C3F8402500BF02B07047CA
:108E100082B00190019B0022C3F8402500BF02B040
:108E20007047000000B583B00190019B1B68184695
:108E300000F0B1F80346002B04D10B494FF4F67053
:108E40000DF080FA019B1B681F2B02D84FF0A04346
:108E500006E0019B1B6803F01F02019B1A60034B95
:108E6000184603B05DF804FB100E05000003005027
:108E700000B585B00190084611461A4603468DF8A4
:108E800003300B468DF8023013468DF8013001ABEC
:108E90001846FFF7C7FF03909DF803209DF80230A6
:108EA0005B001A439DF801309B001A439DF818306F
:108EB0001B0242EA03019DF81C301B04019A19436E
:108EC000039B02F5E07243F8221000BF05B05DF885
:108ED00004FB00B585B003900023019300230093A9
:108EE0000023012201210398FFF7C2FF00BF05B054
:108EF0005DF804FB00B585B003900B468DF80B3090
:108F00009DF80B30002201920022009200220021E5
:108F10000398FFF7ADFF00BF05B05DF804FB00B597
:108F200085B0019001AB1846FFF77CFF0390019BD1
:108F3000012202FA03F31946039800F018F800BF63
:108F400005B05DF804FB00B585B0019001AB184693
:108F5000FFF768FF0390019B012202FA03F3194611
:108F6000039800F00EF800BF05B05DF804FB82B076
:108F700001900091019B009AC3F8082500BF02B040
:108F8000704782B001900091019B009AC3F80C25B4
:108F900000BF02B0704784B00190019B5B0902934F
:108FA00000230393029B002B03D0029B012B04D0D0
:108FB00007E04FF0FF33039303E04FF6FF73039393
:108FC00000BF019B03F01F030193039A019B22FA48
:108FD00003F303F00103002B14BF01230023DBB2D2
:108FE000184604B07047000000B58DB0059004919C
:108FF00003920293049B002B03D16C49AD200DF02A
:10900000A1F9059B1B791A461346DB0013449B000C
:10901000674A13440A930A9B1B7F002B03D0082343
:109020000793079BBDE0059B1B680993059B1A6886
:10903000059B1B7919465F4B53F8213019461046A2
:109040001AF046FF0346002B03D011230793079B1A
:10905000A7E00A9B039A1A600A9B029A5A60049B33
:109060001B7B012B05D8049B1B781846FFF76BFF71
:1090700004E0049B1B781846FFF751FF049B1B7804
:1090800018460023019300230093002300220121AE
:10909000FFF7EEFE049B5B78FF2B09D0049B5B7807
:1090A0000B930B98FFF74FFF0B98FFF712FF02E0AF
:1090B0004FF0FF330B93049B9B78FF2B07D0049B4F
:1090C0009B78089301210898FFF714FF02E04FF006
:1090D000FF330893049B9A780A9B83F82020049B13
:1090E000DA780A9BDA77049BDB78FF2B17D0049B96
:1090F0001B79002B05D0049BDB781846FFF723FF74
:1091000004E0049BDB781846FFF709FF049BDB783B
:109110001846FFF7DEFE049B1A790A9B9A77049B98
:109120001B781946089B0B9A0998FFF7DBFD049BF7
:109130009B6819460998FFF7E9FD049B197B049B7E
:109140005B7B1A460998FFF709FE049B9B79194639
:109150000998FFF735FE0998FFF7BBFD0A9B1B68CE
:10916000002B15D0059B1B681846FFF727FD03460B
:109170001A46049B5B7919461046FFF727FD059BAD
:109180001B681846FFF71AFD03461846FFF74AFD0D
:109190000A9B00225A770A9B01221A770023079321
:1091A000079B18460DB05DF804FB00BF3C0E0500A0
:1091B000B43500209C0E050000B583B00190019BE2
:1091C000DB7FFF2B0ED0019B9B7F002B05D0019BEB
:1091D000DB7F1846FFF7B7FE04E0019BDB7F1846F4
:1091E000FFF79DFE019B00225A77019B00221A7215
:1091F000019B1B68019A02F10800019A526811460E
:10920000984700BF03B05DF804FB00B583B0019040
:109210000B468DF803309DF8033083F00103DBB279
:10922000002B04D040210198FFF749FD03E04021C5
:109230000198FFF73AFD00BF03B05DF804FB00B5ED
:1092400083B001900091009B03F00103002B03D039
:109250000198FFF7C2FD02E00198FFF7C7FD009BF0
:1092600003F00203002B03D00198FFF7C8FD02E0D2
:109270000198FFF7CDFD00BF03B05DF804FB00B51A
:1092800087B00390029101920093019B1B68002B11
:109290000AD0019B1B681846FFF782FC034683F047
:1092A0000103DBB2002B0ED1019B9B68002B11D078
:1092B000019B9B681846FFF773FC034683F001038C
:1092C000DBB2002B06D0029B00225A7710230593B5
:1092D000059B54E0019B1968019B5B681A46039843
:1092E000FFF71EFD019B9968019BDB681A460398F6
:1092F000FFF725FD4FF48C710398FFF7AFFC009941
:109300000398FFF79CFF009B03F00803002B03D199
:1093100010210398FFF794FC029B1B68002B1FD1C0
:1093200000BF4FF48C710398FFF7ADFC034683F048
:109330000103DBB2002BF4D1029BDB7FFF2B1BD0A0
:10934000029B9B7F002B05D0029BDB7F1846FFF71B
:10935000FAFD11E0029BDB7F1846FFF7E0FD0BE012
:10936000009B03F00403002B0CBF01230023DBB29E
:1093700019460398FFF749FF00230593059B1846FC
:1093800007B05DF804FB000010B586B003900291B1
:109390000192039B1B791A461346DB0013449B0082
:1093A0003A4A13440593059B1B7F002B04D138498F
:1093B00040F22D200CF0C6FF029B1B68002B08D149
:1093C000029B5B68002B04D0314940F22E200CF048
:1093D000B9FF029B9B68002B08D1029BDB68002B26
:1093E00004D02B4940F22F200CF0ACFF039B1B79DB
:1093F000002B09D1029BDB68B3F5803F04D2029BAE
:109400005B68B3F5803F04D321494FF40C700CF036
:1094100099FF00230493059B5B7FDBB2002B03D0F5
:1094200011230493049B2EE0059B1B68002B07D09F
:10943000019B03F01403002B02D1059B01225A77F4
:10944000059B029A03F10C0413460FCB84E80F002E
:10945000059BDB7FFF2B0ED0059B9B7F002B05D050
:10946000059BDB7F1846FFF75AFD04E0059BDB7F79
:109470001846FFF768FD039B1868019B029A05993F
:10948000FFF7FDFE0346184606B010BDB4350020B8
:109490003C0E050000B583B0019000914FF48C7133
:1094A0000198FFF7F0FB0346002B10D04FF48C71AE
:1094B0000198FFF7D3FB009B1B68002B04D10649E2
:1094C00040F297200CF03EFF0098FFF775FE00BFBA
:1094D00003B05DF804FB00BF3C0E050008B503496E
:1094E0000348FFF7D7FF00BF08BD00BFB435002019
:1094F0000030004000B585B00190019B002B0AD0E0
:10950000074B43F001030393019B9B010293039BD1
:109510000298984700E000BF05B05DF804FB00BF6B
:10952000A00E050000B583B00190019B002B0AD06E
:109530004FF47A70FFF7DEFF019B013B0193019B23
:10954000002BF5D100E000BF03B05DF804FB000084
:1095500000B585B003460A468DF80F3013468DF8E6
:109560000E300B4B18680B4B19789DF80F309AB2E0
:10957000012301930DF10E03009301230CF0C0FBB6
:109580000120FFF7CFFF00BF05B05DF804FB00BF6F
:10959000D83500209030002000B587B003468DF804
:1095A0000F3000238DF817300B4B18680B4B1978D0
:1095B0009DF80F309AB2012301930DF11703009328
:1095C00001230CF043FC0120FFF7ACFF9DF817309E
:1095D000184607B05DF804FBD83500209030002015
:1095E00000B585B0034602918DF80F301346ADF8F3
:1095F0000C300B4B18680B4B19789DF80F309AB252
:10960000BDF80C300193029B009301230CF01EFC6B
:109610000120FFF787FF00BF05B05DF804FB00BF26
:10962000D83500209030002000B583B001900B4663
:10963000ADF80230BDF802301B0A9BB2DBB219460E
:109640004420FFF785FFBDF80230DBB21946432006
:10965000FFF77EFF00BF03B05DF804FB00B585B0E7
:109660000190009100238DF80F300023ADF80C30ED
:10967000254A009B136000210720FFF769FF312175
:109680002020FFF765FF00210820FFF761FF04217C
:109690000920FFF75DFF04210620FFF759FF019B1A
:1096A00003F5DF7340F6B8311846FFF7BDFF03AB93
:1096B000022219464620FFF793FF10213120FFF7C1
:1096C00047FF88213320FFF743FF80214A20FFF71F
:1096D0003FFF1420FFF760FF03468DF80F3009208D
:1096E000FFF75AFF03468DF80F3001210720FFF7DF
:1096F0002FFF9DF80F30042B01D1012300E0FF2341
:10970000184605B05DF804FBD835002084B0019000
:10971000019BD3F81832ADF80E30BDF80E3040F68C
:10972000B832934205D9BDF80E305033ADF80E3043
:1097300033E0BDF80E3040F65432934205D9BDF8FF
:109740000E305033ADF80E3027E0BDF80E30B3F5D3
:109750002F6F05D9BDF80E308233ADF80E301CE006
:10976000BDF80E3040F68C22934205D9BDF80E307C
:109770009133ADF80E3010E0BDF80E3040F62822DF
:10978000934205D9BDF80E30A033ADF80E3004E099
:10979000BDF80E30BE33ADF80E30BDF80E301846B1
:1097A00004B070470000000000B587B001904FF092
:1097B000000305934FF0000303930023ADF80A3034
:1097C0000023049313E0019A049B03F586735B0066
:1097D00013449B8807EE903AF8EEE77A9DED057A00
:1097E00077EE277ACDED057A049B013304930CF0D4
:1097F00091F803461A46049B9342E4DB0CF08AF886
:10980000034607EE903AB8EEE77ADDED056AC6EE5C
:10981000877ACDED057A059824F09EFC1CA3D3E948
:10982000002324F001FA02460B46104619464FF079
:109830000002154B24F094FA02460B4610461946D6
:109840000FA3D3E9002324F0EFF902460B4610469C
:10985000194624F09BFC03460393DDED037A9FED4C
:109860000B7A67EE877AFCEEE77A17EE903AADF85E
:109870000A30BDF80A30184607B05DF804FB00BF97
:10988000D8822DD8822D0E400000D04000007A44AE
:10989000CDCCCCCCCCCC0C4086B001900023039333
:1098A0000023ADF80A3000238DF81730019BD3F860
:1098B0001832124AA2FB0323DB08ADF80A3000235A
:1098C000049312E00E4A049B9B0013445B88BDF88E
:1098D0000A209A4206D90A4A049B32F823308DF8AE
:1098E000173005E0049B01330493049B132BE9DD3F
:1098F0009DF817309BB2184606B07047CDCCCCCC43
:109900009430002000B583B00190019BD3F8A833B8
:10991000002242F055021A70002262F055025A707D
:10992000019BD3F8D820019BD3F8A83392B2A3F8B7
:109930000F20019BD3F8A833B3F80F309BB2002B54
:1099400008D1019BD3F8A833002242F03C02DA731D
:1099500000221A74019BB3F81423019BD3F8A83397
:10996000D2B25A74019BD3F8A8335A7C019BD3F826
:10997000A83342F07002D2B25A74019BD3F8A833D4
:10998000019AD2F8E021C3F80B20019BD3F8A83349
:10999000981C019B03F540730822194625F010FB23
:1099A0000198FFF779FF03461A46019BD3F8A833C5
:1099B000D2B29A74019BD3F8A833AF229A72019B5A
:1099C000D3F8A833002262F0550283F8F325002271
:1099D00042F0550283F8F42500BF03B05DF804FBA4
:1099E00084B0019000910023ADF80E300023029363
:1099F0001FE0009A029B134417331B78FF2B15D0EE
:109A0000009A029B134417331B785BB2002B08DAD1
:109A1000BDF80E300133ADF80E30029B01330293D6
:109A200004E0BDF80E300133ADF80E30029B013377
:109A30000293009BB3F815309BB21A46029B9342E7
:109A4000D7DB019BBDF80E20A3F81A2300BF04B09A
:109A50007047000000B585B00190009100238DF89B
:109A60000F3000238DF80E30019BB3F816338DF8BC
:109A70000F30019BB3F814338DF80E309DF80E3083
:109A8000092B0DD99DF80E30144AA2FB0323DB08E5
:109A9000DBB23033DBB2FC223921009807F070FFD3
:109AA0009DF80E200D4BA3FB0213D9080B469B001B
:109AB0000B445B00D31ADBB23033DBB2FC22402113
:109AC000009807F05DFF064BFC224721009808F044
:109AD00057FA00BF05B05DF804FB00BFCDCCCCCC7D
:109AE000C00E050000B585B00190019B002B0AD087
:109AF000074B43F001030393019B9B010293039BDC
:109B00000298984700E000BF05B05DF804FB00BF75
:109B1000A00F050000B583B00190019B002B0AD077
:109B20004FF47A70FFF7DEFF019B013B0193019B2D
:109B3000002BF5D100E000BF03B05DF804FB00008E
:109B400000B583B00190019B1B68184600F089F8AE
:109B50000346002B04D10B494FF4F6700CF0F2FBD6
:109B6000019B1B681F2B02D84FF0A04306E0019B0E
:109B70001B6803F01F02019B1A60034B184603B0D9
:109B80005DF804FB500F05000003005000B585B0E0
:109B9000019001AB1846FFF7D3FF0390019B012210
:109BA00002FA03F31946039800F047F800BF05B026
:109BB0005DF804FB00B585B0019001AB1846FFF7D6
:109BC000BFFF0390019B012202FA03F31946039899
:109BD00000F03DF800BF05B05DF804FB00B583B0B0
:109BE00001900091009B002B03D10198FFF7E2FF49
:109BF00002E00198FFF7CAFF00BF03B05DF804FB65
:109C000000B585B0019001AB1846FFF799FF0390AE
:109C1000039800F00AF80246019B22FA03F303F0CE
:109C20000103184605B05DF804FB82B00190019B6A
:109C3000D3F81035184602B0704782B001900091F9
:109C4000019B009AC3F8082500BF02B0704782B09C
:109C500001900091019B009AC3F80C2500BF02B04F
:109C6000704784B00190019B5B090293002303932A
:109C7000029B002B03D0029B012B04D007E04FF086
:109C8000FF33039303E04FF6FF73039300BF019B81
:109C900003F01F030193039A019B22FA03F303F0DD
:109CA0000103002B14BF01230023DBB2184604B0CC
:109CB000704700B583B001900198FFF72BFF00BFFC
:109CC00003B05DF804FB82B00190084611461A46C5
:109CD00003468DF803300B468DF8023013468DF89D
:109CE0000130019B9DF803201A70019B9DF8022012
:109CF0005A70019B9DF801209A70019B9DF80820E5
:109D0000DA70019B9DF80C201A71019B9DF81020C0
:109D10005A7100BF02B0704700B583B00190019B3B
:109D20001E221946114825F04BF9019B1E331E22B5
:109D300019460F4825F044F9019B3C331E22194671
:109D40000C4825F03DF9019B5A331E2219460A485A
:109D500025F036F9019B78331E221946074825F075
:109D60002FF900BF03B05DF804FB00BFE430002012
:109D7000103100203C310020683100209431002057
:109D800000B583B00190019800F069F9019800F0E6
:109D9000D2F900BF03B05DF804FB000000B587B046
:109DA00003468DF8073000238DF8173000238DF817
:109DB000163000238DF815300023ADF81230002343
:109DC000ADF810300023ADF80E3000238DF80D30C3
:109DD0009DF80730013B032B67D801A252F823F00E
:109DE000F19D02001F9E02004F9E02007D9E020018
:109DF00000238DF8173015238DF8163000238DF8C9
:109E000015300023ADF812304FF48473ADF81030E4
:109E10000023ADF80E3003238DF80D3046E01523F6
:109E20008DF8173000238DF8163015238DF8153076
:109E30004FF48473ADF812300023ADF8103040F2C7
:109E40000713ADF80E3000238DF80D302EE01523EA
:109E50008DF8173000238DF8163015238DF8153046
:109E60000023ADF812304FF48473ADF810300023A6
:109E7000ADF80E3007238DF80D3017E000238DF874
:109E8000173015238DF8163000238DF81530002378
:109E9000ADF812304FF48473ADF810300023ADF8F4
:109EA0000E3003238DF80D3000E000BF442000F099
:109EB0004BFB9DF81730184600F063FB9DF81630F9
:109EC000184600F05EFB452000F03EFBBDF8123066
:109ED000DBB2184600F055FBBDF812301B0A9BB2EE
:109EE000DBB2184600F04DFBBDF81030DBB218466F
:109EF00000F047FBBDF810301B0A9BB2DBB21846DE
:109F000000F03FFB4E2000F01FFB9DF81530184677
:109F100000F037FB4F2000F017FBBDF80E30DBB22E
:109F2000184600F02EFBBDF80E301B0A9BB2DBB2C8
:109F3000184600F026FB112000F006FB9DF80D30BE
:109F4000184600F01EFB00BF07B05DF804FB00BF21
:109F500000B585B00190009100F09AFA00211B2015
:109F6000FFF73CFE0A20FFF7A4FE01211B20FFF7AC
:109F700035FE0A20FFF79DFE122000F0E5FA64206E
:109F800000F0EEF8182000F0DFFA802000F0F9FA77
:109F9000222000F0D9FAB12000F0F3FA202000F0DE
:109FA000D3FA642000F0DCF81A2000F0CDFA642027
:109FB00000F0E7FA002000F0E4FA222000F0C4FAF2
:109FC000912000F0DEFA202000F0BEFA642000F0BC
:109FD000C7F8012000F0B8FA072000F0D2FA0120FB
:109FE00000F0CFFA002000F0CCFA212000F0ACFA0B
:109FF000002000F0C6FA002000F0C3FA0F2000F0A5
:10A00000A3FA002000F0BDFA002000F0BAFA012007
:10A01000FFF7C4FE202000F097FA642000F0A0F8BB
:10A02000242000F091FA002303930CE0009B1B789E
:10A03000DB43DBB2184600F0A4FA009B0133009327
:10A04000039B01330393039B41F2AF629342EDD92B
:10A050000198FFF795FE00BF05B05DF804FB00B561
:10A0600085B0019000238DF80F30019BB3F9B0311A
:10A07000B3F5FA6F18DD222000F066FAC72000F071
:10A0800080FA202000F060FAC820FFF712FE41F2AB
:10A09000883000F065F80346FF2B47D16422042185
:10A0A000012010F03BF841E0019BB3F9B031B3F56A
:10A0B0007A7F18DD222000F047FAF72000F061FADD
:10A0C000202000F041FAC820FFF7F3FD42F21070A3
:10A0D00000F046F80346FF2B28D16422042101201A
:10A0E00010F01CF822E0019BB3F9B031002B18DD11
:10A0F000222000F029FAF72000F043FA202000F097
:10A1000023FAC820FFF7D5FD44F6206000F028F8B8
:10A110000346FF2B0AD16422042101200FF0FEFF29
:10A1200004E06422042103200FF0F8FF00BF18466A
:10A1300005B05DF804FB00B583B00190019B0122DE
:10A1400083F83F23102000F0FFF9012000F019FAF6
:10A150006420FFF7AEFD00BF03B05DF804FB000014
:10A1600010B586B00190019B049300230393002354
:10A17000059313F03FFF03900FF086FC1020FFF7CC
:10A180003FFD03468DF80B300120FFF7C3FC059B14
:10A1900001330593059A174BA3FB02139B094FF458
:10A1A0007A7101FB03F3D31A002B01D10FF06CFC81
:10A1B000039A049BD41813F01DFF03469C4210D24F
:10A1C0000D4A0E4BD31ADB081B0443F0030413F0B3
:10A1D00011FF0246019B0A49204621F048FDFF235A
:10A1E00004E09DF80B30002BC8D10023184606B0C0
:10A1F00010BD00BFD34D62107C0B0500040B0500A1
:10A20000740F050000B5ABB00C238DF8A7301823F0
:10A210008DF8A63004AB96220021184624F0F9FEF2
:10A220009DF8A72004A80123029300230193002393
:10A2300000930C23C021FFF746FD9DF8A62004AB38
:10A24000981D0123029300230193002300930C2304
:10A25000C021FFF738FD9DF8A72004AB03F11E00D5
:10A260000123029300230193002300930C23402138
:10A27000FFF729FD9DF8A62004AB03F1240001237C
:10A28000029300230193002300930C238021FFF706
:10A290001AFD9DF8A72004AB03F13C0001230293B3
:10A2A00000230193002300930C234021FFF70BFDB3
:10A2B0009DF8A62004AB03F1420001230293002382
:10A2C0000193002300930C238021FFF7FCFC9DF8F1
:10A2D000A72004AB03F1780001230293002301932C
:10A2E000002300930C238021FFF7EDFC9DF8A620AE
:10A2F00004AB03F17E0001230293002301930023AA
:10A3000000930C234021FFF7DEFC9DF8A72004AB4F
:10A3100003F15A00012302930023019300230093C9
:10A320000C238021FFF7CFFC9DF8A62004AB03F19E
:10A3300060000123029300230193002300930C2368
:10A340004021FFF7C0FC04AB1846FFF7E5FC00BF57
:10A350002BB05DF804FB000000B583B00190019BB9
:10A360001B68184600F06CF80346002B04D10B491B
:10A370004FF4F6700BF0E6FF019B1B681F2B02D811
:10A380004FF0A04306E0019B1B6803F01F02019BF6
:10A390001A60034B184603B05DF804FBA80F0500D4
:10A3A0000003005000B585B0019001AB1846FFF7DF
:10A3B000D3FF0390019B012202FA03F3194603988D
:10A3C00000F02AF800BF05B05DF804FB00B585B0C9
:10A3D000019001AB1846FFF7BFFF0390019B0122DC
:10A3E00002FA03F31946039800F020F800BF05B005
:10A3F0005DF804FB00B583B001900091009B002B39
:10A4000003D10198FFF7E2FF02E00198FFF7CAFFCE
:10A4100000BF03B05DF804FB82B001900091019B86
:10A42000009AC3F8082500BF02B0704782B00190BF
:10A430000091019B009AC3F80C2500BF02B0704741
:10A4400084B00190019B5B09029300230393029B5C
:10A45000002B03D0029B012B04D007E04FF0FF3309
:10A46000039303E04FF6FF73039300BF019B03F0D8
:10A470001F030193039A019B22FA03F303F00103E4
:10A48000002B14BF01230023DBB2184604B0704731
:10A4900008B501211C20FFF7ADFF01211E20FFF7A9
:10A4A000A9FF01211F20FFF7A5FF00BF08BD82B053
:10A4B00003468DF8073000BF9DF807305A1E8DF80F
:10A4C0000720002BF8D100BF00BF02B0704700B5D5
:10A4D00085B003468DF807300120FFF7E8FF002321
:10A4E0008DF80F3027E000211E20FFF783FF0120A9
:10A4F000FFF7DDFF9DF90730002B04DA01211F2053
:10A50000FFF778FF03E000211F20FFF773FF9DF89E
:10A5100007305B008DF807300120FFF7C8FF0121ED
:10A520001E20FFF767FF0120FFF7C1FF9DF80F30E6
:10A5300001338DF80F309DF80F30072BD3D900BFB2
:10A5400000BF05B05DF804FB00B583B003468DF88D
:10A5500007300120FFF7ABFF00211C20FFF74AFF67
:10A5600000211D20FFF746FF9DF807301846FFF732
:10A57000AEFF01211C20FFF73DFF00BF03B05DF8D7
:10A5800004FB00B583B003468DF807300120FFF7C8
:10A590008EFF00211C20FFF72DFF01211D20FFF75A
:10A5A00029FF9DF807301846FFF791FF01211C2075
:10A5B000FFF720FF00BF03B05DF804FB00B585B0D6
:10A5C0000190019B002B0AD0074B43F0010303933A
:10A5D000019B9B010293039B0298984700E000BFF8
:10A5E00005B05DF804FB00BF1011050000B583B095
:10A5F0000190019B002B0AD04FF47A70FFF7DEFF29
:10A60000019B013B0193019B002BF5D100E000BFB2
:10A6100003B05DF804FB000000B58BB003900B465F
:10A62000ADF80A301346ADF808300023ADF82230FB
:10A630000023ADF826300023ADF824300023079323
:10A64000BDF80A309B09ADF82230BDF80830ADF8EE
:10A6500026300023ADF82430BDF80A20BDF826309E
:10A660001344002B00DA3F339B111A46BDF8223009
:10A670009A422ED0BDF80A3003F03F039BB2C3F1DB
:10A680004003ADF82630264B1868BDF80A20BDF807
:10A6900026300193039B0093022350210BF030FBE3
:10A6A0000790079B0693069B002B04D01D4A2E2182
:10A6B00006981DF04BFD0620FFF798FFBDF82630E9
:10A6C000ADF82430BDF80820BDF82430D31AADF819
:10A6D0002630134B1868BDF80A20BDF82430134407
:10A6E00099B2BDF82430039A1344BDF82620019294
:10A6F000009302230A4650210BF002FB0790079BB0
:10A700000593059B002B04D0064A372105981DF0C0
:10A710001DFD0620FFF76AFF00BF0BB05DF804FBCC
:10A72000C0360020CC0F050000B585B003900B4665
:10A73000ADF80A301346ADF80830084B1868BDF87C
:10A740000A20BDF808300193039B00930223502197
:10A750000BF07CFB00BF05B05DF804FBC0360020A9
:10A7600082B001900091034A009B136000BF02B0C9
:10A77000704700BFC036002000B583B001900422AE
:10A780004FF6F9710198FFF7CFFF019B1B68002B73
:10A7900003D1019B4FF461721A60019B1B68B3F1F6
:10A7A000FF3F03D1019B4FF461721A60019B1B684C
:10A7B000054A934203D9019B4FF461721A6000BFAE
:10A7C00003B05DF804FB00BF8051010000B583B009
:10A7D000019004224FF6F9710198FFF71DFF00BFA9
:10A7E00003B05DF804FB00B585B00346ADF8063054
:10A7F0000023ADF80A300023039318E00DF106039F
:10A8000002224FF6DE711846FFF706FF0DF10A032C
:10A8100002224FF6DE711846FFF786FFBDF80620CC
:10A82000BDF80A309A4206D0039B01330393039B81
:10A83000632BE3DD00E000BF00BF05B05DF804FB63
:10A8400000B583B0019002224FF6DE710198FFF748
:10A850006BFF019B1B884FF6FF72934202D1019B55
:10A8600001221A8000BF03B05DF804FB00B58DB073
:10A870000390029101920023ADF81A300023ADF845
:10A8800018300023ADF82C300023ADF8163000232B
:10A89000ADF8143000238DF82B3000238DF81330E1
:10A8A00000238DF81230029B099300238DF823308A
:10A8B000039BB3F82033ADF81A30019B1A785B780C
:10A8C0001B021343ADF8183040F2DC52002102980D
:10A8D00024F09FFB0023ADF82E30019BB3F902302A
:10A8E0001BB298B2019BB3F902301AB2A34B83FB9F
:10A8F00002139910D317C91A0B469B000B445B0037
:10A90000D31A1BB29BB2C31A9BB2ADF82C30019B79
:10A910001B798DF82B30BDF92C301B121BB25AB2AB
:10A92000099B1A70099B93F9003063F07F035AB2B8
:10A93000099B1A70099B01330993BDF82C305AB258
:10A94000099B1A70099B01330993099B9DF82B20E1
:10A950001A70099B0133099300238DF822300123DB
:10A9600007935BE1BDF82C30ADF816309DF82B3025
:10A970008DF813300199079A13465B0013440B447A
:10A98000B3F902301BB298B20199079A13465B00E3
:10A9900013440B44B3F902301AB2784B83FB021311
:10A9A0009910D317C91A0B469B000B445B00D31AAE
:10A9B0001BB29BB2C31A9BB2ADF82C300199079A17
:10A9C00013465B0013440B4404331B788DF82B3083
:10A9D000BDF92C30694A82FB03129210DB17D31A9F
:10A9E0001BB29AB2BDF91630644981FB030189108C
:10A9F000DB17CB1A1BB29BB2D31A9BB2ADF8143043
:10AA00009DF82B209DF81330D31ADBB28DF812304D
:10AA10009DF82230002B57D1BDF9143013F13E0FB1
:10AA20000CDBBDF914303E2B08DC9DF9123013F11C
:10AA3000060F03DB9DF91230062B06DD9DF823304F
:10AA400043F001038DF82330A0E0BDF9143013F179
:10AA50003F0F12DBBDF914303F2B0EDC01238DF8C4
:10AA60002230BDF81430DBB23F33DBB25AB2099B5F
:10AA70001A70099B0133099305E09DF8233043F0D8
:10AA800001038DF823309DF9123013F1070F0EDB0F
:10AA90009DF91230072B0ADC01238DF822309DF935
:10AAA000123007331B015AB2099B1A706EE0012362
:10AAB0008DF82230099B013B09939DF8233043F028
:10AAC00001038DF8233061E0BDF9143013F13E0F1E
:10AAD0000CDBBDF914303E2B08DC9DF9123013F16C
:10AAE000060F03DB9DF91230062B06DD9DF823309F
:10AAF00043F001038DF8233048E09DF9123013F143
:10AB0000070F3DDB9DF91230072B39DC099B93F9C8
:10AB100000209DF812300733DBB25BB203F00F0365
:10AB20005BB213435AB2099B1A7000238DF822308E
:10AB3000099B01330993BDF9143013F13E0F12DB69
:10AB4000BDF914303E2B0EDCBDF81430DBB23F33C0
:10AB5000DBB25AB2099B1A70099B01330993002397
:10AB60008DF8223012E0099B013B09939DF82330B8
:10AB700043F001038DF8233008E000BF6766666686
:10AB80009DF8233043F001038DF823309DF82330E6
:10AB9000002B35D09DF82230002B0AD0099B93F969
:10ABA000003043F00F035AB2099B1A70099B01331E
:10ABB0000993BDF92C301B121BB25AB2099B1A70B3
:10ABC000099B93F9003063F07F035AB2099B1A7016
:10ABD000099B01330993BDF82C305AB2099B1A70B6
:10ABE000099B01330993099B9DF82B201A70099B3F
:10ABF0000133099300238DF8233000238DF8223090
:10AC0000BDF82E300133ADF82E30029B03F2DC5339
:10AC1000099A9A4209D8079B01330793BDF8183067
:10AC2000079A9A427FF79EAE00E000BF9DF822305F
:10AC3000002B07D0099B93F9003043F00F035AB261
:10AC4000099B1A70099B01330993099BAA221A7068
:10AC5000099B01330993099B55221A70BDF82E30C8
:10AC600040F2DC52934203D940F2DC53ADF82E306F
:10AC7000039BB3F82023BDF82E30D31A9AB2039B5E
:10AC8000A3F81223099A029BD31AADF82E30BDF80F
:10AC90002E3018460DB05DF804FB00BF70B58EB0C5
:10ACA00005900023ADF832300AAB09220021184686
:10ACB00024F0AFF90DF132031846FFF7C1FD4F4AFA
:10ACC0004F4BD31ADB081B0443F00300059BD3F85A
:10ACD000F0311D46059BD3F8EC311E46059BD3F899
:10ACE000E8311A46059BD3F8E4311946BDF83230F5
:10ACF0001C46059BB3F9B031039302940191009275
:10AD000033462A463F4921F00EF83F4B1B88002B63
:10AD100003D1BDF832203C4B1A80BDF832300133EC
:10AD20009BB2ADF83230BDF832301846FFF75BFD0C
:10AD3000BDF83230013B9BB2ADF83230BDF8323055
:10AD4000ADF82C30059B03F5F273184624F072F829
:10AD500003460A93059BB3F9E030ADF82E30059B0E
:10AD6000B3F9B031294A82FB03125211DB17D31A0F
:10AD70001BB25BB28DF8303000230D9335E0BDF887
:10AD80003230234AA2FB0312120B4FF4E15101FBB4
:10AD900002F29B1A9BB21A46D200134499B20AAB34
:10ADA00009221846FFF738FCBDF83230184AA2FBDA
:10ADB0000312120B4FF4E15101FB02F29B1A9BB2FA
:10ADC0001A46D200134499B207AB09221846FFF77E
:10ADD000ABFC07A90AAB0922184623F02BFE034659
:10ADE000002B06D00D9B01330D930D9B092BC6DD67
:10ADF00000E000BF00BF0EB070BD00BF7C0B0500BF
:10AE0000040B050058100500C43600201F85EB51C7
:10AE1000C5B3A29110B5ADF50D5D88B0D8ABA3F563
:10AE200057731860D8ABA3F55873196000230DF55C
:10AE30000D5202F10202138000230DF50D5202F1B2
:10AE40001F02137000230DF50D52138000230DF522
:10AE50000C5202F13E021380D8ABA3F557731B6866
:10AE6000B3F81433012B23D8D8ABA3F557731B6861
:10AE7000B3F9E020D8ABA3F558731B685A80D8AB60
:10AE8000A3F557731B68B3F9B031A84A82FB0312CC
:10AE90005211DB17D31A1BB2DAB2D8ABA3F5587331
:10AEA0001B681A7101230DF50D5202F11F02137078
:10AEB000D8ABA3F557731B68B3F818330DF50D52D3
:10AEC00002F10202138008AB143B42F2313200213E
:10AED000184624F09EF80DF50D5303F102031B886C
:10AEE000B3F5E15F40F226810DF50D5303F1020346
:10AEF0001B888F4AA2FB0312120B4FF4E15101FB96
:10AF000002F29B1A9BB2B3F57A7F80F013810DF5A4
:10AF10000D5303F11F031B78002B00F00B810DF57F
:10AF20000D5303F102031A880DF50D5303F11F03AE
:10AF30001B7813447E4A82FB03121A441113DA175A
:10AF40008A1A4FF4E15101FB02F29A1AC2F57A71A2
:10AF500008AA143A0B46DB000B44D0180DF50D532C
:10AF600003F102031B88724AA2FB0312120B4FF477
:10AF7000E15101FB02F29B1A9BB21A46D200134424
:10AF80009BB21A460021FFF7CFFB0DF50D5303F1DD
:10AF900002031A880DF50D5303F11F031B781344A8
:10AFA000634A82FB03121A441113DA178A1A4FF408
:10AFB000E15101FB02F29A1A02F5C15318335C4ABF
:10AFC00082FB03121A441113DA178A1A4FF4E15163
:10AFD00001FB02F29A1A93B21A46D200134498B2B5
:10AFE0000DF50D5303F102031A880DF50D5303F10E
:10AFF0001F031B7813444E4A82FB03121A44111399
:10B00000DA178A1A4FF4E15101FB02F29A1AC2F5DB
:10B010007A739BB21A46D20013449AB208AB143B1F
:10B0200001461846FFF780FB00230DF50D5202F193
:10B03000180213605BE00DF50D5303F102031B884A
:10B040000DF50D5202F1180212689A425EDC0DF500
:10B050000D5303F118031B68C3F579720332D8ABA3
:10B06000A3F555700DF50D5303F1180319680B4640
:10B07000DB000B4403440633B3F9003018B2D8ABFD
:10B08000A3F55873196813465B0013440B4402463A
:10B090005A80D8ABA3F555710DF50D5303F1180384
:10B0A0001A681346DB0013440B44083393F900106D
:10B0B0000DF50D5303F118031B68C3F579720332C4
:10B0C000C8B2D8ABA3F55873196813465B00134494
:10B0D0000B44043302461A700DF50D5303F11803A7
:10B0E0001B6801330DF50D5202F1180213600DF5C6
:10B0F0000D5303F11F031A780DF50D5303F11803D7
:10B100001B681344B3F57A7F95DB00E000BFD8AB32
:10B11000A3F558731B68002262F017021A70002210
:10B1200042F003025A7000F035BC00BF1F85EB519E
:10B13000C5B3A2910DF50D5303F102031B88B3F5BE
:10B14000E15F40F204810DF50D5303F102031B880A
:10B15000A54AA2FB0312120B4FF4E15101FB02F2CC
:10B160009B1A9BB2B3F57A7F80F0F1800DF50D53F9
:10B1700003F102031B8801339B4A82FB03121A442A
:10B180001113DA178A1A4FF4E15101FB02F29A1AED
:10B19000C2F57A7108AA143A0B46DB000B44D018AA
:10B1A0000DF50D5303F102031B8801338E4A82FB18
:10B1B00003121A441113DA178A1A4FF4E15101FBF2
:10B1C00002F29A1A93B21A46D20013449BB21A465C
:10B1D0000021FFF7A9FA0DF50D5303F102031B88B7
:10B1E000814AA2FB0312120B4FF4E15101FB02F260
:10B1F0009B1A9BB203F5C15318337B4A82FB03129F
:10B200001A441113DA178A1A4FF4E15101FB02F2C2
:10B210009A1A93B21A46D200134498B20DF50D5300
:10B2200003F102031B8801336F4A82FB03121A44A5
:10B230001113DA178A1A4FF4E15101FB02F29A1A3C
:10B24000C2F57A739BB21A46D20013449AB208AB85
:10B25000143B01461846FFF767FA00230DF50D521F
:10B2600002F1140213605BE00DF50D5303F10203CC
:10B270001B880DF50D5202F1140212689A4258DC37
:10B280000DF50D5303F114031B68C3F579720332F6
:10B29000D8ABA3F555700DF50D5303F114031968E0
:10B2A0000B46DB000B4403440633B3F9003018B2FD
:10B2B000D8ABA3F55873196813465B0013440B44CD
:10B2C00002465A80D8ABA3F555710DF50D5303F125
:10B2D00014031A681346DB0013440B44083393F934
:10B2E00000100DF50D5303F114031B68C3F57972BB
:10B2F0000332C8B2D8ABA3F55873196813465B0084
:10B3000013440B44043302461A700DF50D5303F138
:10B3100014031B6801330DF50D5202F11402136082
:10B320000DF50D5303F114031B68B3F57A7F9BDB16
:10B3300000E000BFD8ABA3F558731B68002262F091
:10B3400017021A70002242F003025A7022E30DF530
:10B350000D5303F102031B88B3F57A7FC0F0BE8062
:10B360000DF50D5303F11F03197808AA143A0B4683
:10B37000DB000B44D0180DF50D5303F102031A88BE
:10B380000DF50D5303F11F031B78C3F57A73D31A20
:10B39000154A82FB03121A441113DA178A1A4FF462
:10B3A000E15101FB02F29A1A93B21A46D2001344F9
:10B3B00099B20DF50D5303F11F031B78C3F57A7392
:10B3C00001339BB21A46D20013449BB21A46FFF7D0
:10B3D000ABF90DF50D5303F11F031B780DF50D525D
:10B3E00002F1100213605BE0C5B3A2910DF50D539D
:10B3F00003F102031B880DF50D5202F110021268D1
:10B400009A425DDC0DF50D5303F110031B68C3F583
:10B410007A72D8ABA3F555700DF50D5303F11003F7
:10B4200019680B46DB000B4403440633B3F90030C4
:10B4300018B2D8ABA3F55873196813465B001344D0
:10B440000B4402465A80D8ABA3F555710DF50D5348
:10B4500003F110031A681346DB0013440B4408334E
:10B4600093F900100DF50D5303F110031B68C3F59C
:10B470007A72C8B2D8ABA3F55873196813465B004B
:10B4800013440B44043302461A700DF50D5303F1B7
:10B4900010031B6801330DF50D5202F11002136009
:10B4A0000DF50D5303F11F031B78C3F57A730133B8
:10B4B0000DF50D5202F1100212689A4296DB00E07F
:10B4C00000BFD8ABA3F558731B68002262F01702C7
:10B4D0001A70002242F003025A705BE20DF50D5320
:10B4E00003F102031B88B3F57A7F80F0CE800DF55F
:10B4F0000D5303F11F031B78002B00F0C6800DF5E0
:10B500000D5303F11F03197808AA143A0B46DB0008
:10B510000B44D0180DF50D5303F102031A880DF5F5
:10B520000D5303F11F031B78D31A01339BB21A4644
:10B53000D20013449BB21A460021FFF7F5F8B04A37
:10B54000B04BD31ADB081B0443F0030412F052FD86
:10B5500001460DF50D5303F102031A880DF50D5345
:10B5600003F11F031B78D31A0A46A749204620F08F
:10B570007EFB0DF50D5303F11F031B780DF50D52E6
:10B5800002F10C02136061E00DF50D5303F10203AB
:10B590001B880DF50D5202F10C0212689A4268DC0C
:10B5A0000DF50D5303F102031A880DF50D5303F148
:10B5B0000C031B68D21AD8ABA3F555700DF50D53CB
:10B5C00003F10C0319680B46DB000B4403440633FC
:10B5D000B3F9003018B2D8ABA3F558731968134605
:10B5E0005B0013440B4402465A80D8ABA3F5557157
:10B5F0000DF50D5303F10C031A681346DB001344D9
:10B600000B44083393F900100DF50D5303F10203B9
:10B610001A880DF50D5303F10C031B68D21AC8B23A
:10B62000D8ABA3F55873196813465B0013440B4459
:10B63000043302461A700DF50D5303F10C031B6819
:10B6400001330DF50D5202F10C0213600DF50D538F
:10B6500003F102031A880DF50D5303F11F031B7844
:10B6600013440DF50D5202F10C0212689A428BDB65
:10B6700000E000BFD8ABA3F558731B680DF50D5261
:10B6800002F1020212881A8084E10DF50D5303F1D4
:10B6900002031B88B3F57A7F80F0B8800DF50D5357
:10B6A00003F102031B8801339BB21A46D2001344F4
:10B6B0009AB208AB143B00211846FFF735F8504A00
:10B6C000504BD31ADB081B0443F0030412F092FC26
:10B6D00001460DF50D5303F102031A880DF50D53C4
:10B6E00003F11F031B78D31A0A464749204620F06E
:10B6F000BEFA0DF50D5303F11F031B780DF50D5226
:10B7000002F10802136061E00DF50D5303F102032D
:10B710001B880DF50D5202F1080212689A4262DC94
:10B720000DF50D5303F102031A880DF50D5303F1C6
:10B7300008031B68D21AD8ABA3F555700DF50D534D
:10B7400003F1080319680B46DB000B44034406337E
:10B75000B3F9003018B2D8ABA3F558731968134683
:10B760005B0013440B4402465A80D8ABA3F55571D5
:10B770000DF50D5303F108031A681346DB0013445B
:10B780000B44083393F900100DF50D5303F1020338
:10B790001A880DF50D5303F108031B68D21AC8B2BD
:10B7A000D8ABA3F55873196813465B0013440B44D8
:10B7B000043302461A700DF50D5303F108031B689C
:10B7C00001330DF50D5202F1080213600DF50D5312
:10B7D00003F102031B880DF50D5202F108021268F5
:10B7E0009A4291DD00E000BFD8ABA3F558731B6807
:10B7F0000DF50D5202F1020212881A80CAE000BF54
:10B800007C0B0500040B05008C1005000DF50D5395
:10B8100003F11F03197808AA143A0B46DB000B4406
:10B82000D0180DF50D5303F102031A880DF50D53D1
:10B8300003F11F031B78D31A594A82FB03121A44DF
:10B840001113DA178A1A4FF4E15101FB02F29A1A26
:10B8500093B21A46D200134499B20DF50D5303F179
:10B8600002031A880DF50D5303F11F031B78D31A39
:10B870009BB21A46D20013449BB21A46FEF754FFFD
:10B8800000230DF50D5202F10402136063E00DF583
:10B890000D5303F102031B880DF50D5202F1040252
:10B8A00012689A426ADC0DF50D5303F102031B88FE
:10B8B0005A1E0DF50D5303F104031B68D21AD8ABC1
:10B8C000A3F555700DF50D5303F1040319680B46EC
:10B8D000DB000B4403440633B3F9003018B2D8AB95
:10B8E000A3F55873196813465B0013440B440246D2
:10B8F0005A80D8ABA3F555710DF50D5303F1040330
:10B900001A681346DB0013440B44083393F9001004
:10B910000DF50D5303F102031B885A1E0DF50D534F
:10B9200003F104031B68D21AC8B2D8ABA3F558734D
:10B93000196813465B0013440B44043302461A7023
:10B940000DF50D5303F104031B6801330DF50D5282
:10B9500002F1040213600DF50D5303F102031A887E
:10B960000DF50D5303F11F031B78D31A0DF50D527E
:10B9700002F1040212689A4289DB00E000BFD8ABF2
:10B98000A3F558731B680DF50D5202F102021288DF
:10B990001A80FFE700BF0DF50D5D08B010BD00BFB8
:10B9A000C5B3A291F0B58BB005900023ADF822305D
:10B9B00006AB00221A605A601A720DF12203184673
:10B9C000FEF73EFFBDF82230013B9BB2ADF82230BE
:10B9D000BDF82220059BA3F8C1200023099375E040
:10B9E000BDF822303D4AA2FB0312120B4FF4E15185
:10B9F00001FB02F29B1A9BB21A46D200134499B281
:10BA000006AB09221846FEF78FFE06990598099A9B
:10BA10001346DB009B1A0344C033C3F80310BDF97F
:10BA20001E000599099A1346DB009B1A0B44C0338C
:10BA30000246A3F807209DF920000599099A1346AC
:10BA4000DB009B1A0B44C93302461A70244A254B6B
:10BA5000D31ADB081B0443F0030412F0CBFA0546AB
:10BA6000BDF822301F460599099A1346DB009B1A40
:10BA70000B44C033D3F803100598099A1346DB0032
:10BA80009B1A0344C033B3F907301BB21E46059816
:10BA9000099A1346DB009B1A0344C93393F900301B
:10BAA0000293019600913B462A460F49204620F01A
:10BAB00020F9BDF82230002B0CD0BDF82230013B1C
:10BAC0009BB2ADF82230099B01330993099B022BED
:10BAD00086DD00E000BF0BB0F0BD00BFC5B3A29192
:10BAE0007C0B0500040B0500B010050000B583B009
:10BAF000019001224FF6BB710198FEF715FE00BFC1
:10BB000003B05DF804FB00B583B000238DF8073067
:10BB10000DF107031846FFF7E9FF9DF807300133E1
:10BB2000DBB28DF807300DF1070301224FF6BB7130
:10BB30001846FEF771FD00BF03B05DF804FB00B5C9
:10BB400083B00346ADF806300DF1060302224FF62E
:10BB5000B5711846FEF760FD00BF03B05DF804FB49
:10BB600000B583B0019001224FF6AA710198FEF74B
:10BB7000DBFD019B1B78FF2B02D1019B00221A7079
:10BB800000BF03B05DF804FB00B583B003468DF839
:10BB900007300DF1070301224FF6AA711846FEF790
:10BBA0003BFD00BF03B05DF804FB00B583B001901E
:10BBB00004224FF6A6710198FEF7B6FD019B1B68A3
:10BBC000B3F1FF3F02D1019B00221A6000BF03B016
:10BBD0005DF804FB00B583B0019004224FF6A67116
:10BBE0000198FEF719FD00BF03B05DF804FB00B536
:10BBF00089B001AB83E8070004AB09220021184695
:10BC000023F007FA0023079316E001AB09224FF651
:10BC10009D711846FEF700FD04AB184600F087F84A
:10BC200001A904AB0922184622F004FF0346002BA9
:10BC300006D0079B01330793079B092BE5DD00E046
:10BC400000BF00BF09B05DF804FB00B583B00190F0
:10BC50000B224FF69D710198FEF766FD019B9B88B4
:10BC60009BB24FF6FF72934204D10B220021019840
:10BC700023F0CFF900BF03B05DF804FB00B583B03B
:10BC800003468DF807300DF1070301224FF69C7132
:10BC90001846FEF7C1FC00BF03B05DF804FB00B519
:10BCA00083B0019008224FF691710198FEF7B4FC21
:10BCB00000BF03B05DF804FB00B583B0019008221B
:10BCC0004FF691710198FEF72FFD00BF03B05DF8AC
:10BCD00004FB00B589B001AB83E8070004AB09227F
:10BCE0000021184623F095F90023079316E001ABD5
:10BCF00009224FF685711846FEF78EFC04AB1846F4
:10BD000000F015F801A904AB0922184622F092FEB2
:10BD10000346002B06D0079B01330793079B092B93
:10BD2000E5DD00E000BF00BF09B05DF804FB00B531
:10BD300083B0019009224FF685710198FEF7F4FC5B
:10BD4000019B9B889BB24FF6FF72934204D109225C
:10BD50000021019823F05DF900BF03B05DF804FBFA
:10BD600000B585B000238DF8073000238DF806302C
:10BD70000023ADF80A300023ADF808300023039308
:10BD800027E0039BDBB28DF80730039B9AB2154B7B
:10BD90009B1A99B20DF1070301221846FEF73CFCED
:10BDA0000A20FEF723FC039B9AB20E4B9B1A99B212
:10BDB0000DF1060301221846FEF7B6FC9DF8072098
:10BDC0009DF806309A4201D0FF2306E0039B013321
:10BDD0000393039B042BD4DD0123184605B05DF8C3
:10BDE00004FB00BF25FDFFFF00B599B007AB402263
:10BDF000FF21184623F00DF904AB0A22FF21184653
:10BE000023F007F901AB0B22FF21184623F001F9BB
:10BE100001AB1846FFF719FF04AB1846FFF74CFFBC
:10BE2000002317930BE0179B99B207AB40221846EB
:10BE3000FEF7F2FB0DF028FE179B40331793179B7C
:10BE4000B3F5803FEFDB01AB93E80700FFF7CFFED0
:10BE500004AB1846FFF723FF0020FEF7C4FC00BF29
:10BE600019B05DF804FB000000B587B003900291A3
:10BE700011461A460B46ADF806301346ADF80430AD
:10BE8000BDF80630ADF81230BDF80430ADF8103012
:10BE9000BDF80630D9B2BDF80430DAB2154B0298BD
:10BEA00006F06EF8002305931CE0BDF80630DAB208
:10BEB000059BDBB21946C900CB1ADBB21344DBB2D7
:10BEC0001C33D9B2BDF80430D8B2039A059B134491
:10BED00003F540731B780246029805F051FD059B5F
:10BEE00001330593059B072BDFDD00BF00BF07B0C3
:10BEF0005DF804FB3C11050000B587B0039002918A
:10BF000011461A460B46ADF806301346ADF804301C
:10BF1000BDF80630ADF81230BDF80430ADF8103081
:10BF2000BDF80630D9B2BDF80430DAB2164B02982B
:10BF300006F059F8002305931EE0BDF80630DAB28A
:10BF4000059BDBB219468900194449000B44DBB25A
:10BF50001344DBB24C33D9B2BDF80430D8B2039AE3
:10BF6000059B134403F540731B780246029805F0C5
:10BF7000C1FD059B01330593059B072BDDDD00BF4C
:10BF800000BF07B05DF804FB3C11050000B589B0A7
:10BF90000390029111461A460B46ADF8063013463F
:10BFA000ADF8043000238DF81F30BDF80630ADF831
:10BFB0001C30BDF80430ADF81A30194B0593059BC1
:10BFC0001B681B0BDBB203F00F038DF81F30BDF8AD
:10BFD0000630D9B2BDF80430DAB2124B029805F03F
:10BFE000CFFFBDF80630DBB21E33D9B2BDF8043046
:10BFF000DAB29DF81F303033DBB2029805F0C0FC96
:10C00000BDF80630DBB22A33D9B2BDF80430DAB25B
:10C01000054B029805F0B4FF00BF09B05DF804FBC2
:10C020001410001040110500A80E050000B5A1B0C5
:10C030000390029111461A460B46ADF8063013469E
:10C04000ADF80430BDF80630ADF87C30BDF80430F2
:10C05000ADF87A30039BD3F8E8322D4AA2FB0323D4
:10C060005B09ADF87E3005AB64220021184622F052
:10C07000D0FFBDF87E30002B02D10123ADF87E3019
:10C08000039BD3F8E8321E2B05D105AB2149184696
:10C0900022F007FD2EE0039BD3F8E832002B07D1F6
:10C0A000BDF87E2005AB1C49184622F0FAFC21E0C1
:10C0B000039BD3F8E83213F1100F07D1BDF87E20AF
:10C0C00005AB1649184622F0ECFC13E0039BD3F8AD
:10C0D000E832632B07D8BDF87E2005AB104918461F
:10C0E00022F0DFFC06E0BDF87E2005AB0D491846C6
:10C0F00022F0D7FCBDF80630D9B2BDF80430DAB270
:10C1000005AB029805F03CFF00BF21B05DF804FBD1
:10C1100089888888441105005411050064110500C0
:10C12000741105008811050000B5A1B003900291BB
:10C1300011461A460B46ADF806301346ADF80430EA
:10C14000BDF80630ADF87C30BDF80430ADF87A307B
:10C15000039BD3F8D830204AA2FB03235B09ADF838
:10C160007E3005AB64220021184622F052FFBDF854
:10C170007E30002B02D10123ADF87E30039BD3F833
:10C18000D8301E2B05D105AB1449184622F089FC86
:10C1900013E0039BD3F8D830632B07D8BDF87E207B
:10C1A00005AB0F49184622F07CFC06E0BDF87E2066
:10C1B00005AB0C49184622F074FCBDF80630D9B224
:10C1C000BDF80430DAB205AB029805F0D9FE00BF25
:10C1D00021B05DF804FB00BF8988888898110500AC
:10C1E000A8110500BC11050030B58BB003900846BE
:10C1F00011461A460346ADF80A300B46ADF8083032
:10C200001346ADF80630BDF80A30ADF826300023ED
:10C21000ADF81630474B089300238DF81F30BDF959
:10C220000630002B0ED1BDF82630D9B2BDF808304B
:10C23000DAB2BDF80630DBB23033DBB2039805F07A
:10C240009FFB74E0BDF90630002B0EDABDF82630F6
:10C25000D9B2BDF80830DAB2374B039805F090FE3A
:10C26000BDF826300733ADF82630002306933CE0B6
:10C27000BDF90630184622F0EFFA03461A46089B2D
:10C28000B2FBF3F12D4BA3FB0123DA0813469B000D
:10C2900013445B00CA1A1346ADF81630BDF81630C9
:10C2A000002B02D001238DF81F309DF81F30002B8A
:10C2B00012D0BDF82630D9B2BDF80830DAB2BDF8D8
:10C2C0001630DBB23033DBB2039805F059FBBDF812
:10C2D00026300733ADF82630089B184AA2FB03230B
:10C2E000DB080893069B01330693069B072BBFDDF3
:10C2F000BDF82630DCB2BDF80830DDB2BDF906303D
:10C30000184622F0A9FA02460D4B83FB021399103E
:10C31000D317C91A0B469B000B445B00D11ACBB252
:10C320003033DBB22A462146039805F029FB00BFD3
:10C330000BB030BD00E1F505CC110500CDCCCCCC67
:10C340006766666610B586B00390029111461A467C
:10C350000B46ADF806301346ADF80430BDF8063094
:10C36000ADF81630BDF80430ADF81430039BD3F8A7
:10C37000D830BD4AA2FB03235B09ADF81230BDF8EB
:10C380001230002B02D10123ADF81230BDF8063077
:10C39000D9B2BDF80430DAB2B44B029805F0F0FD22
:10C3A000BDF80630DBB25B33D8B2BDF80430DCB286
:10C3B000039BB3F81033AE4AA2FB03235B0B9AB284
:10C3C000AC4BA3FB0213D9080B469B000B445B004C
:10C3D000D31A9BB2DBB23033DBB22246014602985D
:10C3E00005F0CEFABDF80630DBB26233D8B2BDF844
:10C3F0000430DCB2039BB3F810339F4AA2FB032343
:10C400009B099AB29B4BA3FB0213D9080B469B00D6
:10C410000B445B00D31A9BB2DBB23033DBB2224653
:10C420000146029805F0ACFABDF80630DBB269337C
:10C43000D8B2BDF80430DCB2039BB3F810338F4A96
:10C44000A2FB03235B099AB28A4BA3FB0213D90810
:10C450000B469B000B445B00D31A9BB2DBB230331C
:10C46000DBB222460146029805F08AFABDF8063092
:10C47000DBB27033D8B2BDF80430DCB2039BB3F842
:10C4800010337C4AA2FB0323DB089AB2794BA3FB4F
:10C490000213D9080B469B000B445B00D31A9BB2D6
:10C4A000DBB23033DBB222460146029805F068FA6F
:10C4B000BDF80630DBB27733D8B2BDF80430DCB259
:10C4C000039BB3F810236B4BA3FB0213D9080B4655
:10C4D0009B000B445B00D31A9BB2DBB23033DBB260
:10C4E00022460146029805F04BFABDF80630D9B253
:10C4F000BDF80430DBB20C33DAB2614B029805F0C0
:10C500003FFDBDF80630DBB25B33D8B2BDF8043076
:10C51000DBB20C33DCB2039BB3F8D431544AA2FB38
:10C5200003235B0B9AB2534BA3FB0213D9080B46B0
:10C530009B000B445B00D31A9BB2DBB23033DBB2FF
:10C5400022460146029805F01BFABDF80630DBB220
:10C550006233D8B2BDF80430DBB20C33DCB2039BDB
:10C56000B3F8D431444AA2FB03239B099AB2414B4E
:10C57000A3FB0213D9080B469B000B445B00D31AA4
:10C580009BB2DBB23033DBB222460146029805F0A3
:10C59000F7F9BDF80630DBB26933D8B2BDF8043024
:10C5A000DBB20C33DCB2039BB3F8D431334AA2FBC9
:10C5B00003235B099AB22F4BA3FB0213D9080B4646
:10C5C0009B000B445B00D31A9BB2DBB23033DBB26F
:10C5D00022460146029805F0D3F9BDF80630DBB2D9
:10C5E0007033D8B2BDF80430DBB20C33DCB2039B3D
:10C5F000B3F8D4311F4AA2FB0323DB089AB21D4BC8
:10C60000A3FB0213D9080B469B000B445B00D31A13
:10C610009BB2DBB23033DBB222460146029805F012
:10C62000AFF9BDF80630DBB27733D8B2BDF80430CD
:10C63000DBB20C33DCB2039BB3F8D4210D4BA3FB6C
:10C640000213D9080B469B000B445B00D31A9BB224
:10C65000DBB23033DBB222460146029805F090F996
:10C6600000BF06B010BD00BF89888888D4110500BE
:10C670005917B7D1CDCCCCCCD34D62101F85EB511F
:10C68000E011050010B5ADF5D06D0DF5D064A4F244
:10C690006C6420600DF5D060A0F5CE600160194695
:10C6A0000DF5D063A3F272631A800DF5D063A3F287
:10C6B00074630A461A800DF5D063A3F272620DF519
:10C6C000D063A3F2746312881B881344ADF87A36E2
:10C6D0000023ADF878360DF5D063A3F26C631B68C8
:10C6E000D3F8E0210DF5D063A3F26C631B68D3F897
:10C6F0000832D31ACDF8743606AB19220021184639
:10C7000022F087FC0DF5D063A3F26C631B68B3F9CC
:10C71000E030974A82FB03129210DB17D31AADF870
:10C7200078360DF5D063A3F26C631B6893F8E5329D
:10C73000013B0C2B00F2018101A252F823F000BF53
:10C7400075C702008FC70200A9C7020093C8020084
:10C7500093C80200C3C70200DDC70200F7C702008A
:10C7600011C802002BC8020045C802005FC80200C1
:10C7700079C802000DF5D063A3F26C631B6803F562
:10C78000407206A87B4B7C4922F08BF9D5E00DF571
:10C79000D063A3F26C631B6803F5407206A8774B65
:10C7A000754922F07EF9C8E00DF5D063A3F26C6301
:10C7B0001B6803F5407206A8714B6F4922F071F9AE
:10C7C000BBE00DF5D063A3F26C631B6803F5407208
:10C7D00006A86C4B684922F064F9AEE00DF5D06311
:10C7E000A3F26C631B6803F5407206A8654B6249AF
:10C7F00022F057F9A1E00DF5D063A3F26C631B683A
:10C8000003F5407206A85F4B5B4922F04AF994E0B9
:10C810000DF5D063A3F26C631B6803F5407206A8A4
:10C82000594B554922F03DF987E00DF5D063A3F24D
:10C830006C631B6803F5407206A8544B4E4922F006
:10C8400030F97AE00DF5D063A3F26C631B6803F551
:10C85000407206A84E4B484922F023F96DE00DF5D1
:10C86000D063A3F26C631B6803F5407206A8494BC2
:10C87000414922F016F960E00DF5D063A3F26C6334
:10C880001B6803F5407206A8434B3B4922F009F9A7
:10C8900053E0BDF97836002B12DA0DF5D063A3F220
:10C8A0006C631B6803F54074BDF97836184621F0B7
:10C8B000D3FF034606A82246384922F0F2F811E0D9
:10C8C0000DF5D063A3F26C631B6803F54074BDF9EA
:10C8D0007836184621F0C0FF034606A822463049A4
:10C8E00022F0DFF8DDF8743645F25F42934223D838
:10C8F0000DF5D063A3F26C631B6893F89D33002B96
:10C900001AD106AB184622F0D9FB024606AB98189E
:10C910000DF5D063A3F26C631B68B3F949331BB206
:10C920001A460DF5D063A3F26C631B68B3F8473366
:10C930009BB21C4922F0B5F800BF06AB184622F0A6
:10C94000BDFB03469BB20DA9019306AB00930023E8
:10C95000012215480FF078FE0DA90DF21C43382274
:10C96000184622F02DFB0023CDF87C36E1E000BF15
:10C9700067666666F0110500F4110500FC110500FC
:10C98000001205000412050008120500101205002F
:10C99000181205001C1205002012050024120500C3
:10C9A000301205003C1205009C5900200DF5D063A3
:10C9B000A3F274631B881A4692001A44520013446F
:10C9C0001B019AB2DDF87C369BB2194689001944E6
:10C9D00049000B445B019BB213449AB20DF5D0633E
:10C9E000A3F272631B88134499B2DDF87C369BB2C4
:10C9F0001A46520013441A46D200D31A9BB20DF2C3
:10CA00001C420DF5D060A0F5CE601524009400689E
:10CA100007F031F90DF5D063A3F274631B881A4651
:10CA200092001A44520013441B019AB2DDF87C367E
:10CA30009BB219468900194449000B445B019BB223
:10CA400013449AB20DF5D063A3F272631B881344AA
:10CA50009BB2B03399B2DDF87C369BB21A465200D5
:10CA600013441A46D200D31A9BB20DF21C420DF5A4
:10CA7000D060A0F5CE6015240094006807F0FBF8A4
:10CA80000DF5D063A3F274631B881A4692001A4412
:10CA9000520013445B009AB2DDF87C369BB2194613
:10CAA0008900194449000B449B009BB213449AB27D
:10CAB0000DF5D063A3F272631B88DB089BB21344AD
:10CAC00099B20DF5D063A3F5CE630322186806F082
:10CAD000E9FF0DF5D063A3F274631B881A46920038
