:020000022000DC
:1070000000000120197202000172020003720200E6
:1070100005720200077202000972020000000000FF
:107020000000000000000000000000000B720200E1
:107030000D720200000000000F720200F9BD030093
:107040002D0F040013720200ED0F04002D2F040019
:10705000452F0400B9810200AD4F0400191504004A
:107060007942040091420400A942040099350400C9
:1070700013720200ED8A0200137202001372020002
:107080006181040051640400137202001372020053
:1070900013720200137202001DA00400137202009A
:1070A0001372020013720200C1420400D9420400AC
:1070B00021440400137202000000000000000000E0
:1070C0001372020039440400514404001372020098
:1070D00019A8040013720200137202001372020056
:1070E000137202001372020085AA0400000000005F
:1070F0000000000013720200000000001372020082
:10710000000000000000000000000000000000007F
:10711000000000000000000000000000000000006F
:10712000000000000000000000000000000000005F
:10713000000000000000000000000000000000004F
:10714000000000000000000000000000000000003F
:10715000000000000000000000000000000000002F
:10716000000000000000000000000000000000001F
:10717000000000000000000000000000000000000F
:1071800000000000000000000000000000000000FF
:1071900000000000000000000000000000000000EF
:1071A00000000000000000000000000000000000DF
:1071B00000000000000000000000000000000000CF
:1071C00000000000000000000000000000000000BF
:1071D00000000000000000000000000000000000AF
:1071E000000000000000000000000000000000009F
:1071F000000000000000000000000000000000008F
:10720000FEE7FEE7FEE7FEE7FEE7FEE7FEE7FEE756
:10721000FEE7FEE700F002B8FFF7FCBF0F484FF0B3
:107220000701884385460E4880470E48016841F4AF
:1072300070010160BFF34F8FBFF36F8F00F01AB87A
:1072400009480A490A4A884207D0521A05D00378E9
:1072500001300B700131013AF9D170470000012073
:1072600085C4030088ED00E0CCE404007030002009
:1072700084300020354936480A1A02D0072291434B
:107280008D46344934480A1A06D00722914381F3C7
:107290000988022282F3148830483149314A00F0CB
:1072A00044F831483149324A00F03FF83148324918
:1072B000324A00F03AF832483249334A00F035F8A1
:1072C00032483349334A00F030F833483349344ABE
:1072D00000F02BF833483449344A00F026F834489B
:1072E0003449002200F02CF833483449002200F0E1
:1072F00027F833483349091A082902DB00220260C3
:107300004160314A90471F481F49884205D00268B2
:10731000043003B4904703BCF7E700208646EC46F0
:1073200000200021294A9047FEE7884207D0521AE0
:1073300005D0037801300B700131013AF9D1704763
:10734000884202D002700130FAE770470000012045
:1073500000C00020000001200000012050DF0500D7
:10736000843000201C350020D0730200D07302004E
:1073700018E2040050DF0500843000208430002033
:10738000E0E40400E0E40400E0E40400E0E40400DD
:10739000E0E40400E0E40400E0E40400E0E40400CD
:1073A00050DF0500E8E305001C3500201C350020F7
:1073B0001C350020E4720020E4720020E8720020F6
:1073C000E8720020E8920020417202004DBE0300E6
:1073D00084B001900091019B002B0AD1009B012BEE
:1073E00003D1C0238DF80F300FE080238DF80F30CC
:1073F0000BE0019B0133009A9A4203D140238DF8A0
:107400000F3002E000238DF80F309DF80F30184642
:1074100004B0704700B58BB0039002910192002335
:107420000893039B002B02D0019B002B01D10E235C
:1074300041E0039B1B680793039B1B68002B01D152
:107440000E2338E0002309932CE0039B9B68194628
:107450000998FFF7BDFF03468DF81B30019B1A68A2
:10746000089BD31A0493079B186804AB9DF81B1064
:10747000029A00F066F80590059B002B01D0059B51
:1074800019E0049B089A13440893029B002B03D035
:10749000049B029A13440293079B04330793099BAE
:1074A00001330993039B9B68099A9A42CDD3019BB0
:1074B000089A1A60002318460BB05DF804FB82B0EE
:1074C00001900091019B9A68019B5B689A4201D3ED
:1074D00004230DE0019B1A68019B9B689B001344E9
:1074E000009A1A60019B9B685A1C019B9A600023BA
:1074F000184602B0704784B001900091019B03933D
:10750000039B1ABA009B1A600423184604B0704704
:1075100084B0019006230393019B5B781A46019B7C
:107520001B7A13441A46039B13440393019B5B7815
:10753000002B02D0039B01330393039B184604B036
:10754000704700B58BB00390019200930B468DF805
:107550000B3000230993039B002B01D10E2391E0F4
:107560000398FFF7D5FF089000230793019B002B9A
:1075700060D09DF80B3023F0C003002B01D007230F
:1075800080E0009B1B68089A9A4201D9042379E0A5
:10759000019B0693019B01330193069B9DF80B20F1
:1075A0001A70069B1A78039B1B781343DAB2069B6A
:1075B0001A70019B5A1C0192039A127A1A70019B4D
:1075C0000993019B04330193039B5B78002B0CD040
:1075D000019B5A1C0192039A52781A70069B1B78E1
:1075E00043F00803DAB2069B1A70039BD968039B29
:1075F0001B7A1A46019825F0EDFA039B1B7A1A466E
:10760000019B13440193039B5B78002B0DD0039BDC
:107610005968039B5B781A46019825F0DBFA039BB7
:107620005B781A46019B13440193009B1A68089BE0
:10763000D31A0593039B1B78002B02D100230593DB
:1076400012E0039B1B69002B0CD0039B1B69039A60
:10765000506905AA019998470790079B002B03D012
:10766000079B0FE00E230DE0019B002B04D0059B30
:1076700009991846FFF73FFF059A089B1A44009B9B
:107680001A60002318460BB05DF804FB00B583B008
:1076900003468DF807309DF80730002B03D10020FA
:1076A00000F0DCFC00E000BF00BF03B05DF804FBAD
:1076B00000B583B00C4B0D4A5A600B4B00221A6088
:1076C00018F0DAFC0190019B852B02D10023019375
:1076D00004E0019B002B01D0032300E0019B18462E
:1076E00003B05DF804FB00BF1C3500208D7602005E
:1076F00000B583B00190019B1B68022B02D0042BC4
:1077000004D006E0054818F049FD02E018F0A4FD99
:1077100000BF00BF03B05DF804FB00BF1C350020B4
:1077200082B003468DF807309DF90730002B0CDB43
:107730009DF8073003F01F0205499DF907305B09EA
:10774000012000FA02F241F8232000BF02B0704786
:1077500000E100E082B003468DF807309DF9073064
:10776000002B0DDB9DF8073003F01F0206499DF941
:1077700007305B09012000FA02F2603341F8232050
:1077800000BF02B0704700BF00E100E082B00346D6
:1077900000918DF807309DF90730002B0ADB009B24
:1077A000DAB20C499DF907305201D2B20B4483F88A
:1077B00000230BE0009BDAB207499DF8073003F085
:1077C0000F03043B5201D2B20B441A7600BF02B041
:1077D000704700BF00E100E000ED00E000B583B0BD
:1077E00003460A468DF8073013468DF806309DF89B
:1077F0000630012B03D99DF80630032B0BD99DF8D9
:107800000630042B03D99DF80630072B03D908490D
:107810006B200DF023FA9DF806209DF907301146E4
:107820001846FFF7B3FF00BF03B05DF804FB00BFCD
:10783000E0E4040000B583B003468DF807309DF9FD
:1078400007301846FFF76CFF00BF03B05DF804FB7C
:1078500000B583B003468DF807309DF90730184610
:10786000FFF778FF00BF03B05DF804FB82B003466A
:107870008DF807309DF8073003F1804303F5A043EE
:1078800001221A6000BF02B0704782B00346ADF813
:107890000630BDF8063003F1804303F5A043002213
:1078A0001A60BFF34F8F00BF00BF02B0704782B0B5
:1078B0000346ADF80630BDF8063003F1804303F50A
:1078C000A0431B68002B14BF01230023DBB2184622
:1078D00002B0704782B00190034A019BC2F80433A2
:1078E00000BF02B0704700BF0050004082B001905E
:1078F000064BD3F80423019B1340002B14BF012334
:107900000023DBB2184602B0704700BF00500040B1
:1079100082B00190034A019BC2F8083300BF02B055
:10792000704700BF00500040024BD3F804341846A3
:10793000704700BF0050004082B00190034A019B95
:10794000C2F8043400BF02B0704700BF00500040CE
:10795000024BD3F80C341846704700BF005000406B
:1079600082B00190034A019BC2F80C3400BF02B000
:10797000704700BF00500040044BD3F82034DBB206
:1079800003F00103DBB21846704700BF005000400F
:10799000024BD3F83C34DBB218467047005000402D
:1079A00082B00190044A019BC3F31303C2F8083567
:1079B00000BF02B0704700BF0050004082B00346D5
:1079C0008DF80730034A9DF80730C2F80C3500BF28
:1079D00002B0704700500040024BD3F810351846F3
:1079E000704700BF0050004082B001900B46ADF8D8
:1079F0000230074A019BC2F81035BDF80230044A34
:107A0000C3F30803C2F8143500BF02B0704700BFCB
:107A100000500040044BD3F81C359BB2C3F30B035A
:107A20009BB21846704700BF0050004082B003462A
:107A3000ADF80630BDF80630034AC3F30B03C2F8B5
:107A40001C3500BF02B070470050004084B00346B0
:107A50008DF807300A4BD3F824359BB2C3F30B03E0
:107A6000ADF80E309DF80730002B01D0102300E058
:107A70000023BDF80E20D31A9BB2184604B07047FD
:107A80000050004084B001900B468DF803309DF803
:107A90000330C02B02D09DF8033000E040238DF866
:107AA0000F309DF80F30002B29D09DF80F30802B20
:107AB00012D1019B1B781A04019B01331B781B0216
:107AC0001343019A0232127811461E4A0B43C2F840
:107AD0009835019B03330193019B1B781A04019B8A
:107AE00001331B781B021343019A023212781146AC
:107AF000144A0B43C2F89435019B03330193019B55
:107B00001B781A06019B01331B781B041A43019B47
:107B100002331B781B021343019A03321278114679
:107B2000084A0B43C2F89035064BD3F8A03523F032
:107B3000C0029DF80F3003491343C1F8A03500BFC0
:107B400004B070470050004082B003468DF8073003
:107B5000064BD3F8A03523F01F029DF807300349E8
:107B60001343C1F8A03500BF02B070470050004079
:107B700082B00190019BD3F81035DBB2184602B0F9
:107B800070470000F0B587B001900B468DF80330C8
:107B90009DF803300593019B00221E4617464FF0C7
:107BA00000024FF000033B0143EA167332010599CE
:107BB000C1F12006A1F1200022FA01F403FA06F631
:107BC000344323FA00F0044323FA01F5CDE90245DA
:107BD000DDE90223012B04D3044940F2B9200DF062
:107BE0003DF8029B184607B0F0BD00BF0CE504004D
:107BF00000B583B001900091019B1B681846FFF708
:107C0000B7FF034619460098FFF7BCFF0346184626
:107C100003B05DF804FB08B50320FFF7CFFE042096
:107C2000FFF792FF00BF08BD00B583B003468DF893
:107C300007309DF80730002B04D04FF48050FFF739
:107C4000AFFE04E0044BDB681846FFF7A9FE00BF57
:107C500003B05DF804FB00BF2435002000B587B0F9
:107C600003468DF80730344B1B7A002B59D19DF811
:107C70000730DBB2032B09D100F04EF90346002B8D
:107C800001D0022300E001238DF807309DF8073072
:107C9000DBB2012B27D0022B45D1284B5B7ADBB21C
:107CA00083F00103DBB2002B3FD0234B00225A723A
:107CB000214B00229A72204B01221A721E481CF09E
:107CC000F3F91D481CF06CF91C4B01225A72022377
:107CD00002931A4B5B68002B27D0184B5B6802AAF3
:107CE0001046984721E0154B5B7ADBB2002B1ED083
:107CF0000820FFF7BBFD4FF48F60FFF709FE0F4B25
:107D000000225A72042302930120FFF78DFF0B4BD0
:107D10005B68002B0BD0094B5B6802AA10469847A2
:107D200005E000BF04E000BF02E000BF00E000BFCC
:107D300007B05DF804FB00BF84300020243500202C
:107D400008B5114B1B78002B09D00F4B00221A707D
:107D50000E4B00221A720320FFF780FF13E00B4B3B
:107D60005B7A002B0FD0094B9B7A002B0BD00020A5
:107D7000FFF77CFD044B01221A7004481CF094F9B3
:107D800002481CF00DF908BD343500208430002075
:107D900000B583B003460091ADF80630BDF806305B
:107DA000B3F5A07F08D1064B01229A7204481CF05B
:107DB00039F9FFF7C5FF00E000BF03B05DF804FB31
:107DC0008430002000B587B003AB00221A605A60EF
:107DD00004238DF80C3006238DF80F3003AB0E4AC8
:107DE00019460E481BF06CFF0590059B002B01D037
:107DF000059B0DE04FF47A710848FFF7F9FE024643
:107E0000012300930123002104481CF0BFF9059BC6
:107E1000184607B05DF804FB917D02008430002015
:107E200000B583B00190054B1A68019B13401846BA
:107E3000FFF750FD00BF03B05DF804FB24350020C0
:107E400000B587B00190019B002B04D122494FF46B
:107E5000D0700CF003FF00230593204B1B7A002BFE
:107E600001D0082334E01D4B019A92E8030083E817
:107E70000300FFF7D0FE0520FFF7EAFC06210520EE
:107E8000FFF7ACFC0520FFF7D5FCFFF79BFF059043
:107E9000059B002B1BD103AB0721184600F01EF9F0
:107EA0000590059B002B04D00B4940F2B9100CF053
:107EB000D5FE03ABC0211846FFF7E4FD074B0122B6
:107EC0001A72064B4FF48052DA60059B00E0059B66
:107ED000184607B05DF804FB30E5040024350020A7
:107EE00008B50120FFF728FD0820FFF7BFFC044874
:107EF000FFF7F0FC0420FFF7EDFC00BF08BD00BF5A
:107F00008200080008B54FF0FF30FFF701FD0420A4
:107F1000FFF7ACFC00BF08BD00B583B0FFF738FD2C
:107F200003460193019B03F00103002B06D1019B43
:107F300003F00203002B01D1002300E001231846C7
:107F400003B05DF804FB000000B583B00190019B15
:107F5000002B04D10C4940F2FD100CF07FFE019B78
:107F60005A68019B1B689BB219461046FFF73CFDFF
:107F70004FF48C60FFF754FF1C20FFF777FC00BF25
:107F800003B05DF804FB00BF30E5040000B585B028
:107F900001900B468DF80330019B002B04D12D4935
:107FA0004FF402700CF05AFE019B5B68002B04D169
:107FB000284940F209200CF051FE00230393019B55
:107FC0001B68002B01D109233FE000238DF80B3003
:107FD0000DF10B0318461DF025FE4FF48670FFF7D8
:107FE00066FC0346002B08D00820FFF77FFC034601
:107FF000002B02D01123039321E0174B01221A60BA
:10800000019B5A68019B1B689BB219461046FFF7FB
:10801000EBFC019B1B689BB2DB009BB21846FFF791
:1080200005FD9DF803301846FFF7C8FC0020FFF758
:10803000FBFD1820FFF7F4FE0C20FFF717FC9DF85E
:108040000B3018461DF004FE039B184605B05DF882
:1080500004FB00BF30E504001050004000B583B0C1
:1080600003468DF807309DF80730002B05D1074BEC
:1080700001225A72FFF764FE04E09DF807301846AB
:10808000FFF7F4FB03B05DF804FB00BF8430002071
:1080900000B583B003468DF807309DF80730292BD3
:1080A0000CD1FFF769FC0346012B03D12820FFF711
:1080B000DDFB08E02420FFF7D9FB04E09DF8073042
:1080C0001846FFF7D3FB0120FFF7AEFD4FF48F609A
:1080D000FFF71EFC00BF03B05DF804FB86B0019003
:1080E0000091009B042B07D0009B072B04D0009B22
:1080F0000A2B01D009235CE04FF08053D3F85034B1
:1081000005934FF08053D3F8543404934FF08053C9
:10811000D3F858340393059BDAB2019B1A70059B80
:108120001A0A019B0133D2B21A70059B1A0C019BEB
:108130000233D2B21A70019B0333049AD2B21A707E
:10814000009B042B34D0049B1A0A019B0433D2B247
:108150001A70049B1A0C019B0533D2B21A70049B4F
:108160001A0E019B0633D2B21A70009B0A2B11D152
:10817000019B0733039AD2B21A70039B1A0A019B20
:108180000833D2B21A70039B1A0C019B0933D2B286
:108190001A700DE0019B03331B78882B08D1019BDB
:1081A00003331A78019B033342F01102D2B21A70E2
:1081B0000023184606B0704700B597B000238DF82D
:1081C00057304FF48270FFF772FB0346002B0CD040
:1081D0000220FFF78BFB0346002B06D04FF4827082
:1081E000FFF753FB02238DF857304FF48470FFF7ED
:1081F0005EFB0346002B12D00420FFF777FB0346FB
:10820000002B0CD04FF48470FFF73FFB9DF85730E4
:10821000002B01D1012300E003238DF857309DF896
:108220005730002B04D09DF857301846FFF716FD45
:108230004FF48C70FFF73BFB0346002B46D04020E9
:10824000FFF754FB0346002B40D04FF48C70FFF730
:108250001CFB10AB00221A605A609A60DA6040235F
:10826000109300231193FFF7B7FB034613930120EC
:10827000FFF7ECFB0346DB089BB212934FF49470BC
:10828000FFF715FB0346002B13D04FF48060FFF778
:108290002DFB0346002B0CD0FFF75AFB034603F0DF
:1082A0000D0311934FF49470FFF7EFFA0D20FFF7D1
:1082B00057FB684B5B68002B04D0664B5B6810AAC9
:1082C000104698474FF48670FFF7DFFA4FF4887036
:1082D000FFF7EDFA0346002B1DD01020FFF706FB39
:1082E0000346002B17D04FF48870FFF7CEFA0CAB83
:1082F00000221A605A609A60DA6010230C931820EA
:10830000FFF706FB534B5B68002B04D0514B5B68B7
:108310000CAA104698474FF4A670FFF7C8FA034618
:10832000002B35D04FF40020FFF7E0FA0346002B76
:108330002ED04FF4A670FFF7A8FA4FF48C70FFF719
:10834000A4FA4FF49470FFF7A0FA4FF48670FFF789
:108350009CFA4FF48870FFF798FA0020FFF764FC4E
:108360000D20FFF7FDFA0120FFF7E6FA08AB002227
:108370001A605A609A60DA604FF400230893354B14
:108380005B68002B04D0334B5B6808AA1046984703
:108390004FF48E70FFF78BFA0346002B2FD080200E
:1083A000FFF7A4FA0346002B29D0FFF7BDFA14907B
:1083B0004FF48E70FFF769FA04AB00221A605A601E
:1083C0009A60DA6080230493149B03F00103002B6E
:1083D0000ED00120FFF7B0FA00238DF814301D4BAA
:1083E0005B68002B04D01B4B5B6804AA10469847BF
:1083F000149B23F0010314930120FFF79DFA4FF41F
:108400008670FFF754FA0346002B1ED00820FFF7B2
:108410006DFA0346002B18D04FF48670FFF735FA3B
:108420000C4B5B68002B10D008230093FFF7D4FAA5
:1084300003460293FFF7EEFA0346DB089BB2019373
:10844000044B5B686A461046984700BF17B05DF85A
:1084500004FB00BF2435002082B00190019B1B7AF1
:108460001A46019B1B6913440133184602B070473A
:1084700000B587B0039002910192039B1B7A002BF9
:1084800019D0039B1B7A03F04003002B13D1039BED
:108490001B7A5BB2002B0EDB039B5B68002B0AD0C0
:1084A000039B1B69002B06D0039BDB68002B02D0CB
:1084B000019B002B01D1072334E00398FFF7CCFF89
:1084C0000590029B002B29D0019B1B68059A9A42BC
:1084D00001D9042326E0039B1A7A039B1B78DB0156
:1084E000DBB21344DAB2029B1A70029B013302938F
:1084F000039B5968039B1B7A1A46029824F06AFB77
:10850000039B1B7A1A46029B13440293039BD96870
:10851000039B1B691A46029824F05CFB019B059A99
:108520001A600023184607B05DF804FB30DF70477F
:1085300000BF184631DF704700BF184600B585B050
:1085400003468DF8073000238DF80F300DF10F032F
:1085500018461DF067FB21F033FD034683F001034D
:10856000DBB2002B0DD00DF107031946094818F0B6
:108570004FF9084818F028F90346002B01D000F005
:1085800083FA9DF80F3018461DF062FB00BF05B05E
:108590005DF804FB74E3040000B585B0019000238E
:1085A00003931C4B1B78002B01D085232EE0019BED
:1085B000002B01D1184B0193164B019A01331288FD
:1085C0001A8000238DF80B300DF10B0318461DF0B7
:1085D00029FB21F0F5FC034683F00103DBB2002BFD
:1085E0000BD00E490E4800F0F7F90390039B002BC7
:1085F00001D0039B0AE000F02DFA064B01221A700D
:108600009DF80B3018461DF023FB039B184605B060
:108610005DF804FB38350020F8E504003D850200D4
:108620003935002000B583B001900F4B1B78012B2A
:1086300003D00E49A3200CF011FB21F0C1FC03462E
:10864000002B05D00198FFF771FF0346002B07D0E0
:10865000074818F063FA0346DAB2019B1A7000E08B
:1086600000BF03B05DF804FB3835002098E5040036
:1086700074E3040000B585B001900B468DF803301B
:1086800000230393274B1B78012B03D02649B720E7
:108690000CF0E4FA00238DF80A300DF10A031846B5
:1086A0001DF0C0FA21F08CFC03468DF80B309DF8CC
:1086B0000B3083F00103DBB2002B09D09DF80330AF
:1086C0001A460199194818F0E9F9039000F0C2F927
:1086D0009DF80A3018461DF0BBFA9DF80B30002BB0
:1086E0000DD09DF8033019460198FFF723FF039042
:1086F000039B42F20702934201D105230393039B9C
:10870000022BC7D0039B002B06D0039B052B03D065
:108710000549D1200CF0A2FA039B184605B05DF87C
:1087200004FB00BF3835002098E5040074E3040022
:1087300000B585B0034600918DF807309DF80730ED
:10874000002B02D0032B09D02AE0174B1B78012BFA
:1087500025D100F099F900F0ADF920E000238DF863
:108760000B300DF10B0318461DF05CFA0E4B1B7815
:10877000012B0ED10D490E4800F02EF90390039BFA
:10878000002B04D00B4940F207100CF067FA00F000
:1087900061F99DF80B3018461DF05AFA00E000BF51
:1087A00000BF05B05DF804FB383500203D850200B0
:1087B0003935002098E5040082B003468DF8073073
:1087C0009DF90730002B0CDB9DF8073003F01F02EA
:1087D00005499DF907305B09012000FA02F241F8D2
:1087E000232000BF02B0704700E100E082B00346E2
:1087F0008DF807309DF90730002B13DB9DF807300B
:1088000003F01F0209499DF907305B09012000FAB6
:1088100002F2203341F82320BFF34F8F00BFBFF394
:108820006F8F00BF00BF02B0704700BF00E100E0E3
:1088300082B0034600918DF807309DF90730002B78
:108840000ADB009BDAB20C499DF907305201D2B223
:108850000B4483F800230BE0009BDAB207499DF834
:10886000073003F00F03043B5201D2B20B441A76D7
:1088700000BF02B0704700BF00E100E000ED00E083
:1088800000B583B003460A468DF8073013468DF8CD
:1088900006309DF80630012B03D99DF80630032BD6
:1088A0000BD99DF80630042B03D99DF80630072B11
:1088B00003D908496B200CF0D1F99DF806209DF9E9
:1088C000073011461846FFF7B3FF00BF03B05DF84D
:1088D00004FB00BFFCE5040000B583B003468DF83F
:1088E00007309DF907301846FFF766FF00BF03B059
:1088F0005DF804FB00B583B003468DF807309DF9A1
:1089000007301846FFF772FF00BF03B05DF804FBA5
:1089100082B00190034A019BC2F8043300BF02B049
:10892000704700BF00D0004082B00190034A019B15
:10893000C2F8083300BF02B0704700BF00D000404B
:1089400082B003468DF807309DF8073003F180436D
:1089500003F5504301221A6000BF02B0704784B093
:108960000346ADF80630BDF8063003F1804303F549
:10897000504300221A60BDF8063003F1804303F52E
:1089800050431B680393039B00BF04B07047000073
:1089900082B00190054BD3F80022019BDB430349D1
:1089A0001340C1F8003200BF02B0704700D0004051
:1089B000024BD3F80835DBB21846704700D00040B0
:1089C000044BD3F80435034A43F00103C2F80435DD
:1089D00000BF704700D0004000B583B00190009107
:1089E000019B002B03D118493E200CF037F9009B66
:1089F000002B03D114493F200CF030F9134B1B78A6
:108A0000002B01D085231BE0114A009B1360019BC2
:108A10001B7803F00103DBB2002B01D0FFF7D0FF7E
:108A20000120FFF7B5FF019B5B7819460D20FFF78A
:108A300027FF0D20FFF750FF044B01221A7000237F
:108A4000184603B05DF804FB24E604008C350020D2
:108A50009035002008B50A4B1B78012B03D009493B
:108A600056200CF0FBF84FF48070FFF778FF0120E0
:108A7000FFF74EFF0020FFF763FF00BF08BD00BFF8
:108A80008C35002024E6040008B5084B1B78012B28
:108A900003D007495E200CF0E1F80120FFF744FF06
:108AA0000420FFF74DFF00BF08BD00BF8C3500203C
:108AB00024E6040008B50B4B1B78012B03D00A49B0
:108AC00065200CF0CBF80120FFF72EFF0420FFF704
:108AD00037FF0D20FFF70EFF024B00221A7000BF78
:108AE00008BD00BF8C35002024E6040000B583B02B
:108AF0004FF48070FFF733FFFFF75AFF03468DF8FE
:108B00000730054B1B689DF807201046984700BFAB
:108B100003B05DF804FB00BF9035002000B585B0C0
:108B20000190019B002B0AD0074B43F001030393F4
:108B3000019B9B010293039B0298984700E000BFB2
:108B400005B05DF804FB00BF90E6040000B583B0FB
:108B50000190019B002B0AD04FF47A70FFF7DEFFE3
:108B6000019B013B0193019B002BF5D100E000BF6D
:108B700003B05DF804FB000000B585B003460A466B
:108B80008DF80F3013468DF80E300B4B18680B4BD9
:108B900019789DF80F309AB2012301930DF10E035D
:108BA000009301230BF038FD0120FFF7CFFF00BF3A
:108BB00005B05DF804FB00BF943500209030002024
:108BC00000B587B003468DF80F3000238DF81730BD
:108BD0000B4B18680B4B19789DF80F309AB2012394
:108BE00001930DF11703009301230BF0BBFD01204E
:108BF000FFF7ACFF9DF81730184607B05DF804FB8F
:108C0000943500209030002000B585B003460291D5
:108C10008DF80F301346ADF80C300B4B18680B4B2A
:108C200019789DF80F309AB2BDF80C300193029B71
:108C3000009301230BF096FD0120FFF787FF00BF93
:108C400005B05DF804FB00BF943500209030002093
:108C500000B583B001900B46ADF80230BDF802308C
:108C60001B0A9BB2DBB219464420FFF785FFBDF813
:108C70000230DBB219464320FFF77EFF00BF03B08E
:108C80005DF804FB00B585B00190009100238DF8DC
:108C90000F300023ADF80C30254A009B13600021F3
:108CA0000720FFF769FF31212020FFF765FF002132
:108CB0000820FFF761FF04210920FFF75DFF042171
:108CC0000620FFF759FF019B03F5DF7340F6B8312B
:108CD0001846FFF7BDFF03AB022219464620FFF7F7
:108CE00093FF10213120FFF747FF88213320FFF742
:108CF00043FF80214A20FFF73FFF1420FFF760FF6A
:108D000003468DF80F300920FFF75AFF03468DF810
:108D10000F3001210720FFF72FFF9DF80F30042BA4
:108D200001D1012300E0FF23184605B05DF804FBE4
:108D30009435002086B00190002303930023ADF802
:108D40000A3000238DF81730019BD3F81832124AED
:108D5000A2FB0323DB08ADF80A300023049312E0E2
:108D60000E4A049B9B0013445B88BDF80A209A427C
:108D700006D90A4A049B32F823308DF8173005E0F3
:108D8000049B01330493049B132BE9DD9DF81730FA
:108D90009BB2184606B07047CDCCCCCC94300020A6
:108DA00000B583B00190019BD3F8A833002242F0B4
:108DB00055021A70002262F055025A70019BD3F8D6
:108DC000D820019BD3F8A83392B2A3F80F20019BBF
:108DD000D3F8A833B3F80F309BB2002B08D1019B16
:108DE000D3F8A833002242F03C02DA7300221A744E
:108DF000019BB3F81423019BD3F8A833D2B25A7461
:108E0000019BD3F8A8335A7C019BD3F8A83342F0D6
:108E10007002D2B25A74019BD3F8A833019AD2F8E7
:108E2000E021C3F80B20019BD3F8A833981C019BC9
:108E300003F540730822194623F0CCFE0198FFF792
:108E400079FF03461A46019BD3F8A833D2B29A742D
:108E5000019BD3F8A833AF229A72019BD3F8A833B1
:108E6000002262F0550283F8F325002242F05502F9
:108E700083F8F42500BF03B05DF804FB84B00190D3
:108E800000910023ADF80E30002302931FE0009AFA
:108E9000029B134417331B78FF2B15D0009A029BBB
:108EA000134417331B785BB2002B08DABDF80E3081
:108EB0000133ADF80E30029B0133029304E0BDF89C
:108EC0000E300133ADF80E30029B01330293009B4C
:108ED000B3F815309BB21A46029B9342D7DB019B35
:108EE000BDF80E20A3F81A2300BF04B0704700009D
:108EF00000B585B00190009100238DF80F3000235C
:108F00008DF80E30019BB3F816338DF80F30019BAE
:108F1000B3F814338DF80E309DF80E30092B0DD9AF
:108F20009DF80E30144AA2FB0323DB08DBB230337A
:108F3000DBB2FC223921009807F0E4FB9DF80E20FB
:108F40000D4BA3FB0213D9080B469B000B445B009F
:108F5000D31ADBB23033DBB2FC224021009807F099
:108F6000D1FB064BFC224721009807F0CBFE00BF47
:108F700005B05DF804FB00BFCDCCCCCCB0E604005E
:108F800000B585B00190019B002B0AD0074B43F040
:108F900001030393019B9B010293039B0298984753
:108FA00000E000BF05B05DF804FB00BF90E70400DF
:108FB00000B583B00190019B002B0AD04FF47A706A
:108FC000FFF7DEFF019B013B0193019B002BF5D1D5
:108FD00000E000BF03B05DF804FB000000B583B003
:108FE0000190019B1B68184600F089F80346002B8E
:108FF00004D10B494FF4F6700BF030FE019B1B6857
:109000001F2B02D84FF0A04306E0019B1B6803F022
:109010001F02019B1A60034B184603B05DF804FB66
:1090200040E704000003005000B585B0019001AB9B
:109030001846FFF7D3FF0390019B012202FA03F3C6
:109040001946039800F047F800BF05B05DF804FB2F
:1090500000B585B0019001AB1846FFF7BFFF039044
:10906000019B012202FA03F31946039800F03DF830
:1090700000BF05B05DF804FB00B583B0019000911E
:10908000009B002B03D10198FFF7E2FF02E001985B
:10909000FFF7CAFF00BF03B05DF804FB00B585B061
:1090A000019001AB1846FFF799FF0390039800F079
:1090B0000AF80246019B22FA03F303F00103184663
:1090C00005B05DF804FB82B00190019BD3F8103528
:1090D000184602B0704782B001900091019B009A3F
:1090E000C3F8082500BF02B0704782B0019000911C
:1090F000019B009AC3F80C2500BF02B0704784B0F2
:109100000190019B5B09029300230393029B002BB8
:1091100003D0029B012B04D007E04FF0FF330393F1
:1091200003E04FF6FF73039300BF019B03F01F039F
:109130000193039A019B22FA03F303F00103002B2E
:1091400014BF01230023DBB2184604B0704700B5FA
:1091500083B001900198FFF72BFF00BF03B05DF8CB
:1091600004FB82B00190084611461A4603468DF86A
:1091700003300B468DF8023013468DF80130019B09
:109180009DF803201A70019B9DF802205A70019BE4
:109190009DF801209A70019B9DF80820DA70019BD0
:1091A0009DF80C201A71019B9DF810205A7100BF88
:1091B00002B0704700B583B00190019B1E22194692
:1091C000114823F007FD019B1E331E2219460F484C
:1091D00023F000FD019B3C331E2219460C4823F06E
:1091E000F9FC019B5A331E2219460A4823F0F2FC6F
:1091F000019B78331E221946074823F0EBFC00BF81
:1092000003B05DF804FB00BFE43000201031002003
:109210003C310020683100209431002000B583B03B
:109220000190019800F069F9019800F0D2F900BFAF
:1092300003B05DF804FB000000B587B003468DF86D
:10924000073000238DF8173000238DF816300023E7
:109250008DF815300023ADF812300023ADF8103032
:109260000023ADF80E3000238DF80D309DF8073047
:10927000013B032B67D801A252F823F08D92020024
:10928000BB920200EB9202001993020000238DF8BA
:10929000173015238DF8163000238DF81530002374
:1092A000ADF812304FF48473ADF810300023ADF8F0
:1092B0000E3003238DF80D3046E015238DF817305E
:1092C00000238DF8163015238DF815304FF4847374
:1092D000ADF812300023ADF8103040F20713ADF8AE
:1092E0000E3000238DF80D302EE015238DF8173049
:1092F00000238DF8163015238DF815300023ADF8B6
:1093000012304FF48473ADF810300023ADF80E30F6
:1093100007238DF80D3017E000238DF81730152343
:109320008DF8163000238DF815300023ADF812307B
:109330004FF48473ADF810300023ADF80E300323E2
:109340008DF80D3000E000BF442000F04BFB9DF88D
:109350001730184600F063FB9DF81630184600F0F1
:109360005EFB452000F03EFBBDF81230DBB2184634
:1093700000F055FBBDF812301B0A9BB2DBB2184659
:1093800000F04DFBBDF81030DBB2184600F047FB93
:10939000BDF810301B0A9BB2DBB2184600F03FFB51
:1093A0004E2000F01FFB9DF81530184600F037FBEB
:1093B0004F2000F017FBBDF80E30DBB2184600F06E
:1093C0002EFBBDF80E301B0A9BB2DBB2184600F034
:1093D00026FB112000F006FB9DF80D30184600F02A
:1093E0001EFB00BF07B05DF804FB00BF00B585B0F1
:1093F0000190009100F09AFA00211B20FFF73CFE3B
:109400000A20FFF7A4FE01211B20FFF735FE0A20EA
:10941000FFF79DFE122000F0E5FA642000F0EEF860
:10942000182000F0DFFA802000F0F9FA222000F086
:10943000D9FAB12000F0F3FA202000F0D3FA64202A
:1094400000F0DCF81A2000F0CDFA642000F0E7FA12
:10945000002000F0E4FA222000F0C4FA912000F08D
:10946000DEFA202000F0BEFA642000F0C7F80120E8
:1094700000F0B8FA072000F0D2FA012000F0CFFA8D
:10948000002000F0CCFA212000F0ACFA002000F01F
:10949000C6FA002000F0C3FA0F2000F0A3FA002063
:1094A00000F0BDFA002000F0BAFA0120FFF7C4FE78
:1094B000202000F097FA642000F0A0F8242000F0AB
:1094C00091FA002303930CE0009B1B78DB43DBB293
:1094D000184600F0A4FA009B01330093039B01336C
:1094E0000393039B41F2AF629342EDD90198FFF7DA
:1094F00095FE00BF05B05DF804FB00B585B0019096
:1095000000238DF80F30019BB3F9B031B3F5FA6F3A
:1095100018DD222000F066FAC72000F080FA202033
:1095200000F060FAC820FFF712FE41F2883000F028
:1095300065F80346FF2B47D16422042101200FF078
:109540008BF841E0019BB3F9B031B3F57A7F18DDB8
:10955000222000F047FAF72000F061FA202000F006
:1095600041FAC820FFF7F3FD42F2107000F046F810
:109570000346FF2B28D16422042101200FF06CF850
:1095800022E0019BB3F9B031002B18DD222000F05E
:1095900029FAF72000F043FA202000F023FAC8202F
:1095A000FFF7D5FD44F6206000F028F80346FF2BB6
:1095B0000AD16422042101200FF04EF804E0642255
:1095C000042103200FF048F800BF184605B05DF8ED
:1095D00004FB00B583B00190019B012283F83F2377
:1095E000102000F0FFF9012000F019FA6420FFF7C5
:1095F000AEFD00BF03B05DF804FB000010B586B0FF
:109600000190019B0493002303930023059312F020
:10961000FDFB03900EF0A6F81020FFF73FFD034678
:109620008DF80B300120FFF7C3FC059B0133059338
:10963000059A174BA3FB02139B094FF47A7101FBA8
:1096400003F3D31A002B01D10EF08CF8039A049B7C
:10965000D41812F0DBFB03469C4210D20D4A0E4B8D
:10966000D31ADB081B0443F0030412F0CFFB0246BD
:10967000019B0A4920461FF060FBFF2304E09DF890
:109680000B30002BC8D10023184606B010BD00BF18
:10969000D34D621014E40400A4E3040064E7040062
:1096A00000B5ABB00C238DF8A73018238DF8A63089
:1096B00004AB96220021184623F0B5FA9DF8A720A6
:1096C00004A80123029300230193002300930C2399
:1096D000C021FFF746FD9DF8A62004AB981D01238D
:1096E000029300230193002300930C23C021FFF772
:1096F00038FD9DF8A72004AB03F11E00012302935F
:1097000000230193002300930C234021FFF729FD40
:109710009DF8A62004AB03F124000123029300234B
:109720000193002300930C238021FFF71AFD9DF87D
:10973000A72004AB03F13C00012302930023019313
:10974000002300930C234021FFF70BFD9DF8A6207A
:1097500004AB03F142000123029300230193002391
:1097600000930C238021FFF7FCFC9DF8A72004AB9D
:1097700003F1780001230293002301930023009357
:109780000C238021FFF7EDFC9DF8A62004AB03F12C
:109790007E000123029300230193002300930C23F6
:1097A0004021FFF7DEFC9DF8A72004AB03F15A002F
:1097B0000123029300230193002300930C238021B3
:1097C000FFF7CFFC9DF8A62004AB03F16000012356
:1097D000029300230193002300930C234021FFF701
:1097E000C0FC04AB1846FFF7E5FC00BF2BB05DF8EA
:1097F00004FB000000B583B00190019B1B68184674
:1098000000F06CF80346002B04D10B494FF4F670BE
:109810000BF024FA019B1B681F2B02D84FF0A043CA
:1098200006E0019B1B6803F01F02019B1A60034BBB
:10983000184603B05DF804FB98E7040000030050ED
:1098400000B585B0019001AB1846FFF7D3FF039038
:10985000019B012202FA03F31946039800F02AF84B
:1098600000BF05B05DF804FB00B585B0019001AB09
:109870001846FFF7BFFF0390019B012202FA03F392
:109880001946039800F020F800BF05B05DF804FB0E
:1098900000B583B001900091009B002B03D101988B
:1098A000FFF7E2FF02E00198FFF7CAFF00BF03B035
:1098B0005DF804FB82B001900091019B009AC3F80F
:1098C000082500BF02B0704782B001900091019B53
:1098D000009AC3F80C2500BF02B0704784B0019015
:1098E000019B5B09029300230393029B002B03D08F
:1098F000029B012B04D007E04FF0FF33039303E0FA
:109900004FF6FF73039300BF019B03F01F03019306
:10991000039A019B22FA03F303F00103002B14BF07
:1099200001230023DBB2184604B0704708B50121BB
:109930001C20FFF7ADFF01211E20FFF7A9FF012129
:109940001F20FFF7A5FF00BF08BD82B003468DF8BA
:10995000073000BF9DF807305A1E8DF80720002BF6
:10996000F8D100BF00BF02B0704700B585B0034614
:109970008DF807300120FFF7E8FF00238DF80F3046
:1099800027E000211E20FFF783FF0120FFF7DDFF06
:109990009DF90730002B04DA01211F20FFF778FF23
:1099A00003E000211F20FFF773FF9DF807305B00E5
:1099B0008DF807300120FFF7C8FF01211E20FFF7B7
:1099C00067FF0120FFF7C1FF9DF80F3001338DF8CD
:1099D0000F309DF80F30072BD3D900BF00BF05B063
:1099E0005DF804FB00B583B003468DF80730012015
:1099F000FFF7ABFF00211C20FFF74AFF00211D20CD
:109A0000FFF746FF9DF807301846FFF7AEFF01212C
:109A10001C20FFF73DFF00BF03B05DF804FB00B55D
:109A200083B003468DF807300120FFF78EFF002139
:109A30001C20FFF72DFF01211D20FFF729FF9DF8B6
:109A400007301846FFF791FF01211C20FFF720FF88
:109A500000BF03B05DF804FB00B585B00190019B29
:109A6000002B0AD0074B43F001030393019B9B019A
:109A70000293039B0298984700E000BF05B05DF891
:109A800004FB00BF00E9040000B583B00190019B16
:109A9000002B0AD04FF47A70FFF7DEFF019B013BE9
:109AA0000193019B002BF5D100E000BF03B05DF8EE
:109AB00004FB000000B58BB003900B46ADF80A30F4
:109AC0001346ADF808300023ADF822300023ADF87E
:109AD00026300023ADF8243000230793BDF80A3068
:109AE0009B09ADF82230BDF80830ADF826300023D0
:109AF000ADF82430BDF80A20BDF826301344002B01
:109B000000DA3F339B111A46BDF822309A422ED01C
:109B1000BDF80A3003F03F039BB2C3F14003ADF838
:109B20002630264B1868BDF80A20BDF82630019370
:109B3000039B0093022350210AF06EFD0790079BC0
:109B40000693069B002B04D01D4A2E2106981BF07D
:109B5000D5FB0620FFF798FFBDF82630ADF824307E
:109B6000BDF80820BDF82430D31AADF82630134BC9
:109B70001868BDF80A20BDF82430134499B2BDF826
:109B80002430039A1344BDF8262001920093022347
:109B90000A4650210AF040FD0790079B0593059B5C
:109BA000002B04D0064A372105981BF0A7FB06209E
:109BB000FFF76AFF00BF0BB05DF804FB7C360020A6
:109BC000BCE7040000B585B003900B46ADF80A3041
:109BD0001346ADF80830084B1868BDF80A20BDF8E8
:109BE00008300193039B0093022350210AF0BAFD31
:109BF00000BF05B05DF804FB7C36002082B0019008
:109C00000091034A009B136000BF02B0704700BF81
:109C10007C36002000B583B0019004224FF6F97124
:109C20000198FFF7CFFF019B1B68002B03D1019B1D
:109C30004FF461721A60019B1B68B3F1FF3F03D1BF
:109C4000019B4FF461721A60019B1B68054A9342A5
:109C500003D9019B4FF461721A6000BF03B05DF835
:109C600004FB00BF8051010000B583B001900422C5
:109C70004FF6F9710198FFF71DFF00BF03B05DF8C3
:109C800004FB00B585B00346ADF806300023ADF8FF
:109C90000A300023039318E00DF1060302224FF669
:109CA000DE711846FFF706FF0DF10A0302224FF698
:109CB000DE711846FFF786FFBDF80620BDF80A30B2
:109CC0009A4206D0039B01330393039B632BE3DD8E
:109CD00000E000BF00BF05B05DF804FB00B583B035
:109CE000019002224FF6DE710198FFF76BFF019B96
:109CF0001B884FF6FF72934202D1019B01221A800A
:109D000000BF03B05DF804FB00B58DB00390029175
:109D100001920023ADF81A300023ADF8183000236B
:109D2000ADF82C300023ADF816300023ADF8143018
:109D300000238DF82B3000238DF8133000238DF88D
:109D40001230029B099300238DF82330039BB3F854
:109D50002033ADF81A30019B1A785B781B0213434D
:109D6000ADF8183040F2DC520021029822F05BFF7F
:109D70000023ADF82E30019BB3F902301BB298B22C
:109D8000019BB3F902301AB2A34B83FB0213991063
:109D9000D317C91A0B469B000B445B00D31A1BB2A6
:109DA0009BB2C31A9BB2ADF82C30019B1B798DF886
:109DB0002B30BDF92C301B121BB25AB2099B1A7002
:109DC000099B93F9003063F07F035AB2099B1A7024
:109DD000099B01330993BDF82C305AB2099B1A70C4
:109DE000099B01330993099B9DF82B201A70099B4D
:109DF0000133099300238DF82230012307935BE19F
:109E0000BDF82C30ADF816309DF82B308DF813309E
:109E10000199079A13465B0013440B44B3F90230CF
:109E20001BB298B20199079A13465B0013440B4486
:109E3000B3F902301AB2784B83FB02139910D3178F
:109E4000C91A0B469B000B445B00D31A1BB29BB292
:109E5000C31A9BB2ADF82C300199079A13465B00E8
:109E600013440B4404331B788DF82B30BDF92C3090
:109E7000694A82FB03129210DB17D31A1BB29AB203
:109E8000BDF91630644981FB03018910DB17CB1A39
:109E90001BB29BB2D31A9BB2ADF814309DF82B20A5
:109EA0009DF81330D31ADBB28DF812309DF82230B2
:109EB000002B57D1BDF9143013F13E0F0CDBBDF967
:109EC00014303E2B08DC9DF9123013F1060F03DB32
:109ED0009DF91230062B06DD9DF8233043F0010377
:109EE0008DF82330A0E0BDF9143013F13F0F12DBE1
:109EF000BDF914303F2B0EDC01238DF82230BDF864
:109F00001430DBB23F33DBB25AB2099B1A70099BA3
:109F10000133099305E09DF8233043F001038DF8E8
:109F200023309DF9123013F1070F0EDB9DF912302B
:109F3000072B0ADC01238DF822309DF912300733FC
:109F40001B015AB2099B1A706EE001238DF8223072
:109F5000099B013B09939DF8233043F001038DF8E1
:109F6000233061E0BDF9143013F13E0F0CDBBDF975
:109F700014303E2B08DC9DF9123013F1060F03DB81
:109F80009DF91230062B06DD9DF8233043F00103C6
:109F90008DF8233048E09DF9123013F1070F3DDBB7
:109FA0009DF91230072B39DC099B93F900209DF8AD
:109FB00012300733DBB25BB203F00F035BB2134323
:109FC0005AB2099B1A7000238DF82230099B013385
:109FD0000993BDF9143013F13E0F12DBBDF91430B3
:109FE0003E2B0EDCBDF81430DBB23F33DBB25AB28D
:109FF000099B1A70099B0133099300238DF82230C5
:10A0000012E0099B013B09939DF8233043F00103C3
:10A010008DF8233008E000BF676666669DF8233040
:10A0200043F001038DF823309DF82330002B35D009
:10A030009DF82230002B0AD0099B93F9003043F0A1
:10A040000F035AB2099B1A70099B01330993BDF99A
:10A050002C301B121BB25AB2099B1A70099B93F940
:10A06000003063F07F035AB2099B1A70099B0133D9
:10A070000993BDF82C305AB2099B1A70099B013321
:10A080000993099B9DF82B201A70099B01330993B2
:10A0900000238DF8233000238DF82230BDF82E30B8
:10A0A0000133ADF82E30029B03F2DC53099A9A4239
:10A0B00009D8079B01330793BDF81830079A9A42D5
:10A0C0007FF79EAE00E000BF9DF82230002B07D046
:10A0D000099B93F9003043F00F035AB2099B1A70A1
:10A0E000099B01330993099BAA221A70099B01332A
:10A0F0000993099B55221A70BDF82E3040F2DC52AC
:10A10000934203D940F2DC53ADF82E30039BB3F8F1
:10A110002023BDF82E30D31A9AB2039BA3F8122342
:10A12000099A029BD31AADF82E30BDF82E3018468E
:10A130000DB05DF804FB00BF70B58EB00590002334
:10A14000ADF832300AAB09220021184622F06BFD2F
:10A150000DF132031846FFF7C1FD4F4A4F4BD31A9A
:10A16000DB081B0443F00300059BD3F8F0311D46C8
:10A17000059BD3F8EC311E46059BD3F8E8311A460F
:10A18000059BD3F8E4311946BDF832301C46059BD7
:10A19000B3F9B031039302940191009233462A46F9
:10A1A0003F491EF026FE3F4B1B88002B03D1BDF814
:10A1B00032203C4B1A80BDF8323001339BB2ADF8EF
:10A1C0003230BDF832301846FFF75BFDBDF8323053
:10A1D000013B9BB2ADF83230BDF83230ADF82C30D7
:10A1E000059B03F5F273184622F02EFC03460A93F2
:10A1F000059BB3F9E030ADF82E30059BB3F9B031D3
:10A20000294A82FB03125211DB17D31A1BB25BB22D
:10A210008DF8303000230D9335E0BDF83230234AFD
:10A22000A2FB0312120B4FF4E15101FB02F29B1A45
:10A230009BB21A46D200134499B20AAB09221846BF
:10A24000FFF738FCBDF83230184AA2FB0312120B9C
:10A250004FF4E15101FB02F29B1A9BB21A46D20065
:10A26000134499B207AB09221846FFF7ABFC07A9C4
:10A270000AAB0922184622F0D7F80346002B06D075
:10A280000D9B01330D930D9B092BC6DD00E000BF34
:10A2900000BF0EB070BD00BF14E40400A4E30400CE
:10A2A00048E80400803600201F85EB51C5B3A29119
:10A2B00010B5ADF50D5D88B0D8ABA3F55773186038
:10A2C000D8ABA3F55873196000230DF50D5202F1B8
:10A2D0000202138000230DF50D5202F11F021370CC
:10A2E00000230DF50D52138000230DF50C5202F1E1
:10A2F0003E021380D8ABA3F557731B68B3F8143331
:10A30000012B23D8D8ABA3F557731B68B3F9E02012
:10A31000D8ABA3F558731B685A80D8ABA3F5577315
:10A320001B68B3F9B031A84A82FB03125211DB1744
:10A33000D31A1BB2DAB2D8ABA3F558731B681A71E3
:10A3400001230DF50D5202F11F021370D8ABA3F5D6
:10A3500057731B68B3F818330DF50D5202F1020262
:10A36000138008AB143B42F231320021184622F030
:10A370005AFC0DF50D5303F102031B88B3F5E15FA1
:10A3800040F226810DF50D5303F102031B888F4A1D
:10A39000A2FB0312120B4FF4E15101FB02F29B1AD4
:10A3A0009BB2B3F57A7F80F013810DF50D5303F165
:10A3B0001F031B78002B00F00B810DF50D5303F1EB
:10A3C00002031A880DF50D5303F11F031B78134484
:10A3D0007E4A82FB03121A441113DA178A1A4FF4C9
:10A3E000E15101FB02F29A1AC2F57A7108AA143AF5
:10A3F0000B46DB000B44D0180DF50D5303F102039F
:10A400001B88724AA2FB0312120B4FF4E15101FBAD
:10A4100002F29B1A9BB21A46D20013449BB21A4610
:10A420000021FFF7CFFB0DF50D5303F102031A884E
:10A430000DF50D5303F11F031B781344634A82FB90
:10A4400003121A441113DA178A1A4FF4E15101FB6F
:10A4500002F29A1A02F5C15318335C4A82FB0312C6
:10A460001A441113DA178A1A4FF4E15101FB02F270
:10A470009A1A93B21A46D200134498B20DF50D53AE
:10A4800003F102031A880DF50D5303F11F031B7826
:10A4900013444E4A82FB03121A441113DA178A1A24
:10A4A0004FF4E15101FB02F29A1AC2F57A739BB2A2
:10A4B0001A46D20013449AB208AB143B0146184620
:10A4C000FFF780FB00230DF50D5202F11802136017
:10A4D0005BE00DF50D5303F102031B880DF50D52E2
:10A4E00002F1180212689A425EDC0DF50D5303F179
:10A4F00018031B68C3F579720332D8ABA3F5557006
:10A500000DF50D5303F1180319680B46DB000B44DE
:10A5100003440633B3F9003018B2D8ABA3F558732F
:10A52000196813465B0013440B4402465A80D8ABAB
:10A53000A3F555710DF50D5303F118031A68134671
:10A54000DB0013440B44083393F900100DF50D5351
:10A5500003F118031B68C3F579720332C8B2D8AB94
:10A56000A3F55873196813465B0013440B44043376
:10A5700002461A700DF50D5303F118031B680133E1
:10A580000DF50D5202F1180213600DF50D5303F194
:10A590001F031A780DF50D5303F118031B681344BC
:10A5A000B3F57A7F95DB00E000BFD8ABA3F5587315
:10A5B0001B68002262F017021A70002242F00302A8
:10A5C0005A7000F035BC00BF1F85EB51C5B3A29196
:10A5D0000DF50D5303F102031B88B3F5E15F40F263
:10A5E00004810DF50D5303F102031B88A54AA2FB5C
:10A5F0000312120B4FF4E15101FB02F29B1A9BB2C2
:10A60000B3F57A7F80F0F1800DF50D5303F102036D
:10A610001B8801339B4A82FB03121A441113DA1779
:10A620008A1A4FF4E15101FB02F29A1AC2F57A71CB
:10A6300008AA143A0B46DB000B44D0180DF50D5355
:10A6400003F102031B8801338E4A82FB03121A4472
:10A650001113DA178A1A4FF4E15101FB02F29A1A28
:10A6600093B21A46D20013449BB21A460021FFF758
:10A67000A9FA0DF50D5303F102031B88814AA2FBD1
:10A680000312120B4FF4E15101FB02F29B1A9BB231
:10A6900003F5C15318337B4A82FB03121A4411138A
:10A6A000DA178A1A4FF4E15101FB02F29A1A93B2B7
:10A6B0001A46D200134498B20DF50D5303F102036C
:10A6C0001B8801336F4A82FB03121A441113DA17F5
:10A6D0008A1A4FF4E15101FB02F29A1AC2F57A7319
:10A6E0009BB21A46D20013449AB208AB143B0146FF
:10A6F0001846FFF767FA00230DF50D5202F1140218
:10A7000013605BE00DF50D5303F102031B880DF59B
:10A710000D5202F1140212689A4258DC0DF50D53E5
:10A7200003F114031B68C3F579720332D8ABA3F5A8
:10A7300055700DF50D5303F1140319680B46DB003A
:10A740000B4403440633B3F9003018B2D8ABA3F579
:10A750005873196813465B0013440B4402465A8031
:10A76000D8ABA3F555710DF50D5303F114031A6819
:10A770001346DB0013440B44083393F900100DF526
:10A780000D5303F114031B68C3F579720332C8B289
:10A79000D8ABA3F55873196813465B0013440B44F8
:10A7A000043302461A700DF50D5303F114031B68B0
:10A7B00001330DF50D5202F1140213600DF50D5326
:10A7C00003F114031B68B3F57A7F9BDB00E000BF45
:10A7D000D8ABA3F558731B68002262F017021A70F9
:10A7E000002242F003025A7022E30DF50D5303F1EB
:10A7F00002031B88B3F57A7FC0F0BE800DF50D53C0
:10A8000003F11F03197808AA143A0B46DB000B4426
:10A81000D0180DF50D5303F102031A880DF50D53F1
:10A8200003F11F031B78C3F57A73D31A154A82FB11
:10A8300003121A441113DA178A1A4FF4E15101FB7B
:10A8400002F29A1A93B21A46D200134499B20DF545
:10A850000D5303F11F031B78C3F57A7301339BB2C9
:10A860001A46D20013449BB21A46FFF7ABF90DF516
:10A870000D5303F11F031B780DF50D5202F1100269
:10A8800013605BE0C5B3A2910DF50D5303F1020314
:10A890001B880DF50D5202F1100212689A425DDC20
:10A8A0000DF50D5303F110031B68C3F57A72D8AB95
:10A8B000A3F555700DF50D5303F1100319680B4600
:10A8C000DB000B4403440633B3F9003018B2D8ABB5
:10A8D000A3F55873196813465B0013440B440246F2
:10A8E0005A80D8ABA3F555710DF50D5303F1100344
:10A8F0001A681346DB0013440B44083393F9001025
:10A900000DF50D5303F110031B68C3F57A72C8B23D
:10A91000D8ABA3F55873196813465B0013440B4476
:10A92000043302461A700DF50D5303F110031B6832
:10A9300001330DF50D5202F1100213600DF50D53A8
:10A9400003F11F031B78C3F57A7301330DF50D5224
:10A9500002F1100212689A4296DB00E000BFD8AB09
:10A96000A3F558731B68002262F017021A700022C8
:10A9700042F003025A705BE20DF50D5303F102033E
:10A980001B88B3F57A7F80F0CE800DF50D5303F16F
:10A990001F031B78002B00F0C6800DF50D5303F14B
:10A9A0001F03197808AA143A0B46DB000B44D01891
:10A9B0000DF50D5303F102031A880DF50D5303F144
:10A9C0001F031B78D31A01339BB21A46D2001344DB
:10A9D0009BB21A460021FFF7F5F8B04AB04BD31AE4
:10A9E000DB081B0443F0030411F010FA01460DF5D7
:10A9F0000D5303F102031A880DF50D5303F11F03E4
:10AA00001B78D31A0A46A74920461EF096F90DF581
:10AA10000D5303F11F031B780DF50D5202F10C02CB
:10AA2000136061E00DF50D5303F102031B880DF572
:10AA30000D5202F10C0212689A4268DC0DF50D53BA
:10AA400003F102031A880DF50D5303F10C031B6883
:10AA5000D21AD8ABA3F555700DF50D5303F10C03C5
:10AA600019680B46DB000B4403440633B3F900308E
:10AA700018B2D8ABA3F55873196813465B0013449A
:10AA80000B4402465A80D8ABA3F555710DF50D5312
:10AA900003F10C031A681346DB0013440B4408331C
:10AAA00093F900100DF50D5303F102031A880DF50B
:10AAB0000D5303F10C031B68D21AC8B2D8ABA3F52F
:10AAC0005873196813465B0013440B440433024661
:10AAD0001A700DF50D5303F10C031B6801330DF5CE
:10AAE0000D5202F10C0213600DF50D5303F1020338
:10AAF0001A880DF50D5303F11F031B7813440DF550
:10AB00000D5202F10C0212689A428BDB00E000BF8A
:10AB1000D8ABA3F558731B680DF50D5202F1020274
:10AB200012881A8084E10DF50D5303F102031B888E
:10AB3000B3F57A7F80F0B8800DF50D5303F1020371
:10AB40001B8801339BB21A46D20013449AB208AB59
:10AB5000143B00211846FFF735F8504A504BD31AE2
:10AB6000DB081B0443F0030411F050F901460DF516
:10AB70000D5303F102031A880DF50D5303F11F0362
:10AB80001B78D31A0A46474920461EF0D6F80DF521
:10AB90000D5303F11F031B780DF50D5202F108024E
:10ABA000136061E00DF50D5303F102031B880DF5F1
:10ABB0000D5202F1080212689A4262DC0DF50D5343
:10ABC00003F102031A880DF50D5303F108031B6806
:10ABD000D21AD8ABA3F555700DF50D5303F1080348
:10ABE00019680B46DB000B4403440633B3F900300D
:10ABF00018B2D8ABA3F55873196813465B00134419
:10AC00000B4402465A80D8ABA3F555710DF50D5390
:10AC100003F108031A681346DB0013440B4408339E
:10AC200093F900100DF50D5303F102031A880DF589
:10AC30000D5303F108031B68D21AC8B2D8ABA3F5B1
:10AC40005873196813465B0013440B4404330246DF
:10AC50001A700DF50D5303F108031B6801330DF550
:10AC60000D5202F1080213600DF50D5303F10203BA
:10AC70001B880DF50D5202F1080212689A4291DD0F
:10AC800000E000BFD8ABA3F558731B680DF50D525B
:10AC900002F1020212881A80CAE000BF14E4040024
:10ACA000A4E304007CE804000DF50D5303F11F0339
:10ACB000197808AA143A0B46DB000B44D0180DF59E
:10ACC0000D5303F102031A880DF50D5303F11F0311
:10ACD0001B78D31A594A82FB03121A441113DA174C
:10ACE0008A1A4FF4E15101FB02F29A1A93B21A4602
:10ACF000D200134499B20DF50D5303F102031A88E3
:10AD00000DF50D5303F11F031B78D31A9BB21A469E
:10AD1000D20013449BB21A46FEF754FF00230DF5F0
:10AD20000D5202F10402136063E00DF50D5303F1BF
:10AD300002031B880DF50D5202F1040212689A42BB
:10AD40006ADC0DF50D5303F102031B885A1E0DF545
:10AD50000D5303F104031B68D21AD8ABA3F5557049
:10AD60000DF50D5303F1040319680B46DB000B448A
:10AD700003440633B3F9003018B2D8ABA3F55873C7
:10AD8000196813465B0013440B4402465A80D8AB43
:10AD9000A3F555710DF50D5303F104031A6813461D
:10ADA000DB0013440B44083393F900100DF50D53E9
:10ADB00003F102031B885A1E0DF50D5303F1040322
:10ADC0001B68D21AC8B2D8ABA3F5587319681346DA
:10ADD0005B0013440B44043302461A700DF50D5307
:10ADE00003F104031B6801330DF50D5202F1040257
:10ADF00013600DF50D5303F102031A880DF50D5381
:10AE000003F11F031B78D31A0DF50D5202F1040252
:10AE100012689A4289DB00E000BFD8ABA3F55873F3
:10AE20001B680DF50D5202F1020212881A80FFE72D
:10AE300000BF0DF50D5D08B010BD00BFC5B3A291F8
:10AE400000B583B0019001224FF6BB710198FEF767
:10AE5000B9FE00BF03B05DF804FB00B583B000236A
:10AE60008DF807300DF107031846FFF7E9FF9DF84D
:10AE700007300133DBB28DF807300DF107030122F3
:10AE80004FF6BB711846FEF715FE00BF03B05DF824
:10AE900004FB00B583B00346ADF806300DF10603A0
:10AEA00002224FF6B5711846FEF704FE00BF03B04C
:10AEB0005DF804FB00B583B0019001224FF6AA7142
:10AEC0000198FEF77FFE019B1B78FF2B02D1019BAF
:10AED00000221A7000BF03B05DF804FB00B583B018
:10AEE00003468DF807300DF1070301224FF6AA71D2
:10AEF0001846FEF7DFFD00BF03B05DF804FB00B5A8
:10AF000083B0019004224FF6A6710198FEF75AFE15
:10AF1000019B1B68B3F1FF3F02D1019B00221A6025
:10AF200000BF03B05DF804FB00B583B001900422BC
:10AF30004FF6A6710198FEF7BDFD00BF03B05DF8A6
:10AF400004FB00B589B001AB83E8070004AB09221C
:10AF50000021184621F067FE0023079316E001AB9D
:10AF600009224FF69D711846FEF7A4FD04AB184662
:10AF700000F087F801A904AB0922184621F054FA21
:10AF80000346002B06D0079B01330793079B092B31
:10AF9000E5DD00E000BF00BF09B05DF804FB00B5CF
:10AFA00083B001900B224FF69D710198FEF70AFEC7
:10AFB000019B9B889BB24FF6FF72934204D10B22F8
:10AFC0000021019821F02FFE00BF03B05DF804FBC3
:10AFD00000B583B003468DF807300DF10703012259
:10AFE0004FF69C711846FEF765FD00BF03B05DF893
:10AFF00004FB00B583B0019008224FF691710198CF
:10B00000FEF758FD00BF03B05DF804FB00B583B048
:10B01000019008224FF691710198FEF7D3FD00BF11
:10B0200003B05DF804FB00B589B001AB83E807000D
:10B0300004AB09220021184621F0F5FD00230793F7
:10B0400016E001AB09224FF685711846FEF732FD76
:10B0500004AB184600F015F801A904AB0922184604
:10B0600021F0E2F90346002B06D0079B013307933A
:10B07000079B092BE5DD00E000BF00BF09B05DF8CC
:10B0800004FB00B583B0019009224FF68571019849
:10B09000FEF798FD019B9B889BB24FF6FF7293428F
:10B0A00004D109220021019821F0BDFD00BF03B0A9
:10B0B0005DF804FB00B585B000238DF80730002350
:10B0C0008DF806300023ADF80A300023ADF80830C3
:10B0D0000023039327E0039BDBB28DF80730039B2B
:10B0E0009AB2154B9B1A99B20DF10703012218462B
:10B0F000FEF7E0FC0A20FEF7C7FC039B9AB20E4B5A
:10B100009B1A99B20DF1060301221846FEF75AFD6B
:10B110009DF807209DF806309A4201D0FF2306E0F3
:10B12000039B01330393039B042BD4DD01231846B7
:10B1300005B05DF804FB00BF25FDFFFF00B599B029
:10B1400007AB4022FF21184621F06DFD04AB0A2217
:10B15000FF21184621F067FD01AB0B22FF211846A5
:10B1600021F061FD01AB1846FFF719FF04AB18464B
:10B17000FFF74CFF002317930BE0179B99B207AB27
:10B1800040221846FEF796FC0CF0ECFA179B403371
:10B190001793179BB3F5803FEFDB01AB93E80700F4
:10B1A000FFF7CFFE04AB1846FFF723FF0020FEF7A2
:10B1B00068FD00BF19B05DF804FB000000B587B062
:10B1C0000390029111461A460B46ADF8063013461D
:10B1D000ADF80430BDF80630ADF81230BDF80430DB
:10B1E000ADF81030BDF80630D9B2BDF80430DAB28F
:10B1F000154B029805F086FD002305931CE0BDF871
:10B200000630DAB2059BDBB21946C900CB1ADBB2B5
:10B210001344DBB21C33D9B2BDF80430D8B2039A60
:10B22000059B134403F540731B780246029805F012
:10B2300069FA059B01330593059B072BDFDD00BFF2
:10B2400000BF07B05DF804FB2CE9040000B587B02F
:10B250000390029111461A460B46ADF8063013468C
:10B26000ADF80430BDF80630ADF81230BDF804304A
:10B27000ADF81030BDF80630D9B2BDF80430DAB2FE
:10B28000164B029805F071FD002305931EE0BDF8F2
:10B290000630DAB2059BDBB2194689001944490031
:10B2A0000B44DBB21344DBB24C33D9B2BDF80430EB
:10B2B000D8B2039A059B134403F540731B780246EA
:10B2C000029805F0D9FA059B01330593059B072BDE
:10B2D000DDDD00BF00BF07B05DF804FB2CE9040012
:10B2E00000B589B00390029111461A460B46ADF89D
:10B2F00006301346ADF8043000238DF81F30BDF83A
:10B300000630ADF81C30BDF80430ADF81A30194BDA
:10B310000593059B1B681B0BDBB203F00F038DF835
:10B320001F30BDF80630D9B2BDF80430DAB2124B86
:10B33000029805F0E7FCBDF80630DBB21E33D9B247
:10B34000BDF80430DAB29DF81F303033DBB202981A
:10B3500005F0D8F9BDF80630DBB22A33D9B2BDF812
:10B360000430DAB2054B029805F0CCFC00BF09B0FE
:10B370005DF804FB1410001030E9040098E60400A6
:10B3800000B5A1B00390029111461A460B46ADF8E4
:10B3900006301346ADF80430BDF80630ADF87C3009
:10B3A000BDF80430ADF87A30039BD3F8E8322D4A6B
:10B3B000A2FB03235B09ADF87E3005AB64220021BC
:10B3C000184621F030FCBDF87E30002B02D101235D
:10B3D000ADF87E30039BD3F8E8321E2B05D105ABC8
:10B3E0002149184621F068F92EE0039BD3F8E83292
:10B3F000002B07D1BDF87E2005AB1C49184621F073
:10B400005BF921E0039BD3F8E83213F1100F07D169
:10B41000BDF87E2005AB1649184621F04DF913E022
:10B42000039BD3F8E832632B07D8BDF87E2005AB29
:10B430001049184621F040F906E0BDF87E2005AB22
:10B440000D49184621F038F9BDF80630D9B2BDF8DB
:10B450000430DAB205AB029805F054FC00BF21B00D
:10B460005DF804FB8988888834E9040044E9040015
:10B4700054E9040064E9040078E9040000B5A1B0CF
:10B480000390029111461A460B46ADF8063013465A
:10B49000ADF80430BDF80630ADF87C30BDF80430AE
:10B4A000ADF87A30039BD3F8D830204AA2FB0323AF
:10B4B0005B09ADF87E3005AB64220021184621F00F
:10B4C000B2FBBDF87E30002B02D10123ADF87E30F7
:10B4D000039BD3F8D8301E2B05D105AB1449184671
:10B4E00021F0EAF813E0039BD3F8D830632B07D898
:10B4F000BDF87E2005AB0F49184621F0DDF806E0C7
:10B50000BDF87E2005AB0C49184621F0D5F8BDF8F2
:10B510000630D9B2BDF80430DAB205AB029805F0B6
:10B52000F1FB00BF21B05DF804FB00BF898888886B
:10B5300088E9040098E90400ACE9040030B58BB058
:10B540000390084611461A460346ADF80A300B46EA
:10B55000ADF808301346ADF80630BDF80A30ADF846
:10B5600026300023ADF81630474B089300238DF8A2
:10B570001F30BDF90630002B0ED1BDF82630D9B2F0
:10B58000BDF80830DAB2BDF80630DBB23033DBB2DA
:10B59000039805F0B7F874E0BDF90630002B0EDA19
:10B5A000BDF82630D9B2BDF80830DAB2374B03986F
:10B5B00005F0A8FBBDF826300733ADF82630002390
:10B5C00006933CE0BDF90630184620F03FFE0346E6
:10B5D0001A46089BB2FBF3F12D4BA3FB0123DA08BB
:10B5E00013469B0013445B00CA1A1346ADF816308D
:10B5F000BDF81630002B02D001238DF81F309DF8C6
:10B600001F30002B12D0BDF82630D9B2BDF808305B
:10B61000DAB2BDF81630DBB23033DBB2039805F096
:10B6200071F8BDF826300733ADF82630089B184A6C
:10B63000A2FB0323DB080893069B01330693069BBA
:10B64000072BBFDDBDF82630DCB2BDF80830DDB217
:10B65000BDF90630184620F0F9FD02460D4B83FB7C
:10B6600002139910D317C91A0B469B000B445B00B9
:10B67000D11ACBB23033DBB22A462146039805F00B
:10B6800041F800BF0BB030BD00E1F505BCE9040096
:10B69000CDCCCCCC6766666610B586B003900291BF
:10B6A00011461A460B46ADF806301346ADF8043085
:10B6B000BDF80630ADF81630BDF80430ADF81430E2
:10B6C000039BD3F8D830BD4AA2FB03235B09ADF836
:10B6D0001230BDF81230002B02D10123ADF8123028
:10B6E000BDF80630D9B2BDF80430DAB2B44B0298D6
:10B6F00005F008FBBDF80630DBB25B33D8B2BDF80D
:10B700000430DCB2039BB3F81033AE4AA2FB032330
:10B710005B0B9AB2AC4BA3FB0213D9080B469B0000
:10B720000B445B00D31A9BB2DBB23033DBB2224650
:10B730000146029804F0E6FFBDF80630DBB2623342
:10B74000D8B2BDF80430DCB2039BB3F810339F4A83
:10B75000A2FB03239B099AB29B4BA3FB0213D908BC
:10B760000B469B000B445B00D31A9BB2DBB2303319
:10B77000DBB222460146029804F0C4FFBDF8063051
:10B78000DBB26933D8B2BDF80430DCB2039BB3F846
:10B7900010338F4AA2FB03235B099AB28A4BA3FBA7
:10B7A0000213D9080B469B000B445B00D31A9BB2D3
:10B7B000DBB23033DBB222460146029804F0A2FF2E
:10B7C000BDF80630DBB27033D8B2BDF80430DCB25D
:10B7D000039BB3F810337C4AA2FB0323DB089AB225
:10B7E000794BA3FB0213D9080B469B000B445B006B
:10B7F000D31A9BB2DBB23033DBB222460146029849
:10B8000004F080FFBDF80630DBB27733D8B2BDF864
:10B810000430DCB2039BB3F810236B4BA3FB021381
:10B82000D9080B469B000B445B00D31A9BB2DBB2DA
:10B830003033DBB222460146029804F063FFBDF8C4
:10B840000630D9B2BDF80430DBB20C33DAB2614B4A
:10B85000029805F057FABDF80630DBB25B33D8B278
:10B86000BDF80430DBB20C33DCB2039BB3F8D43147
:10B87000544AA2FB03235B0B9AB2534BA3FB021364
:10B88000D9080B469B000B445B00D31A9BB2DBB27A
:10B890003033DBB222460146029804F033FFBDF894
:10B8A0000630DBB26233D8B2BDF80430DBB20C3301
:10B8B000DCB2039BB3F8D431444AA2FB03239B09B7
:10B8C0009AB2414BA3FB0213D9080B469B000B44D1
:10B8D0005B00D31A9BB2DBB23033DBB222460146A7
:10B8E000029804F00FFFBDF80630DBB26933D8B21E
:10B8F000BDF80430DBB20C33DCB2039BB3F8D431B7
:10B90000334AA2FB03235B099AB22F4BA3FB02131A
:10B91000D9080B469B000B445B00D31A9BB2DBB2E9
:10B920003033DBB222460146029804F0EBFEBDF84C
:10B930000630DBB27033D8B2BDF80430DBB20C3362
:10B94000DCB2039BB3F8D4311F4AA2FB0323DB080C
:10B950009AB21D4BA3FB0213D9080B469B000B4464
:10B960005B00D31A9BB2DBB23033DBB22246014616
:10B97000029804F0C7FEBDF80630DBB27733D8B2C8
:10B98000BDF80430DBB20C33DCB2039BB3F8D42136
:10B990000D4BA3FB0213D9080B469B000B445B0025
:10B9A000D31A9BB2DBB23033DBB222460146029897
:10B9B00004F0A8FE00BF06B010BD00BF89888888CB
:10B9C000C4E904005917B7D1CDCCCCCCD34D62100B
:10B9D0001F85EB51D0E9040010B5ADF5D06D0DF524
:10B9E000D064A4F26C6420600DF5D060A0F5CE6048
:10B9F000016019460DF5D063A3F272631A800DF54C
:10BA0000D063A3F274630A461A800DF5D063A3F2E3
:10BA100072620DF5D063A3F2746312881B8813441D
:10BA2000ADF87A360023ADF878360DF5D063A3F281
:10BA30006C631B68D3F8E0210DF5D063A3F26C634F
:10BA40001B68D3F80832D31ACDF8743606AB192226
:10BA50000021184621F0E7F80DF5D063A3F26C63DE
:10BA60001B68B3F9E030974A82FB03129210DB1790
:10BA7000D31AADF878360DF5D063A3F26C631B686A
:10BA800093F8E532013B0C2B00F2018101A252F840
:10BA900023F000BFC9BA0200E3BA0200FDBA0200F7
:10BAA000E7BB0200E7BB020017BB020031BB02008C
:10BAB0004BBB020065BB02007FBB020099BB0200CA
:10BAC000B3BB0200CDBB02000DF5D063A3F26C63E3
:10BAD0001B6803F5407206A87B4B7C4920F0ECFD07
:10BAE000D5E00DF5D063A3F26C631B6803F54072DB
:10BAF00006A8774B754920F0DFFDC8E00DF5D0634F
:10BB0000A3F26C631B6803F5407206A8714B6F4982
:10BB100020F0D2FDBBE00DF5D063A3F26C631B688F
:10BB200003F5407206A86C4B684920F0C5FDAEE0F5
:10BB30000DF5D063A3F26C631B6803F5407206A891
:10BB4000654B624920F0B8FDA1E00DF5D063A3F28A
:10BB50006C631B6803F5407206A85F4B5B4920F0DD
:10BB6000ABFD94E00DF5D063A3F26C631B6803F5A5
:10BB7000407206A8594B554920F09EFD87E00DF50F
:10BB8000D063A3F26C631B6803F5407206A8544BA4
:10BB90004E4920F091FD7AE00DF5D063A3F26C637D
:10BBA0001B6803F5407206A84E4B484920F084FDFF
:10BBB0006DE00DF5D063A3F26C631B6803F5407272
:10BBC00006A8494B414920F077FD60E00DF5D063B0
:10BBD000A3F26C631B6803F5407206A8434B3B4914
:10BBE00020F06AFD53E0BDF97836002B12DA0DF52E
:10BBF000D063A3F26C631B6803F54074BDF978361B
:10BC0000184620F023FB034606A82246384920F0B8
:10BC100053FD11E00DF5D063A3F26C631B6803F5CF
:10BC20004074BDF97836184620F010FB034606A88C
:10BC30002246304920F040FDDDF8743645F25F427F
:10BC4000934223D80DF5D063A3F26C631B6893F87D
:10BC50009D33002B1AD106AB184621F039F8024665
:10BC600006AB98180DF5D063A3F26C631B68B3F9AB
:10BC700049331BB21A460DF5D063A3F26C631B68FF
:10BC8000B3F847339BB21C4920F016FD00BF06AB4A
:10BC9000184621F01DF803469BB20DA9019306AB8F
:10BCA00000930023012215480EF062FF0DA90DF24A
:10BCB0001C433822184620F08DFF0023CDF87C3637
:10BCC000E1E000BF67666666E0E90400E4E90400BD
:10BCD000ECE90400F0E90400F4E90400F8E90400E8
:10BCE00000EA040008EA04000CEA040010EA040078
:10BCF00014EA040020EA04002CEA04007C5B002023
:10BD00000DF5D063A3F274631B881A4692001A449F
:10BD1000520013441B019AB2DDF87C369BB21946DF
:10BD20008900194449000B445B019BB213449AB249
:10BD30000DF5D063A3F272631B88134499B2DDF84A
:10BD40007C369BB21A46520013441A46D200D31ACC
:10BD50009BB20DF21C420DF5D060A0F5CE6015240B
:10BD60000094006806F05FFD0DF5D063A3F27463E4
:10BD70001B881A4692001A44520013441B019AB2BF
:10BD8000DDF87C369BB219468900194449000B4402
:10BD90005B019BB213449AB20DF5D063A3F27263B8
:10BDA0001B8813449BB2B03399B2DDF87C369BB24A
:10BDB0001A46520013441A46D200D31A9BB20DF20F
:10BDC0001C420DF5D060A0F5CE60152400940068EB
:10BDD00006F029FD0DF5D063A3F274631B881A46A3
:10BDE00092001A44520013445B009AB2DDF87C368C
:10BDF0009BB219468900194449000B449B009BB231
:10BE000013449AB20DF5D063A3F272631B88DB086A
:10BE10009BB2134499B20DF5D063A3F5CE63032210
:10BE2000186806F017FC0DF5D063A3F274631B8845
:10BE30001A4692001A44520013445B009AB2DDF88D
:10BE40007C369BB219468900194449000B449B007B
:10BE50009BB213449AB20DF5D063A3F272631B88B0
:10BE6000DB089BB213449BB2163399B20DF5D06335
:10BE7000A3F5CE630322186806F0ECFBDDF87C36F0
:10BE80000133CDF87C36DDF87C36142B7FF738AFE4
:10BE900000BF00BF0DF5D06D10BD00BF00B585B06F
:10BEA0000390029111461A460B46ADF80630134630
:10BEB000ADF804309DF81830002B16D0BDF80630D0
:10BEC000D9B2BDF80430DAB22223029804F05AFB4A
:10BED000BDF80630DBB20833D9B2BDF80430DAB2AF
:10BEE0002423029804F04EFB15E0BDF80630D9B2C9
:10BEF000BDF80430DAB22323029804F043FBBDF806
:10BF00000630DBB20833D9B2BDF80430DAB22423EC
:10BF1000029804F037FB00BF05B05DF804FB000099
:10BF200000B585B00390029113468DF807309DF857
:10BF30000730012B12D11B2302220021029804F0AA
:10BF400021FB1C2302220821029804F01BFB834BD7
:10BF500002220D21029804F0D5FEFBE09DF8073087
:10BF6000032B12D1192302220021029804F00AFBAC
:10BF70001A2302220821029804F004FB784B0222C3
:10BF80000D21029804F0BEFEE4E09DF80730042B7A
:10BF900012D11B2302220021029804F0F3FA1C2381
:10BFA00002220821029804F0EDFA6E4B02220D21C4
:10BFB000029804F0A7FECDE09DF80730052B12D1C2
:10BFC0001B2302220021029804F0DCFA1C23022227
:10BFD0000821029804F0D6FA634B02220D21029840
:10BFE00004F090FEB6E09DF80730062B12D11B231B
:10BFF00002220021029804F0C5FA1C230222082123
:10C00000029804F0BFFA594B02220D21029804F065
:10C0100079FE9FE09DF80730072B12D11B230222E7
:10C020000021029804F0AEFA1C2302220821029893
:10C0300004F0A8FA4E4B02220D21029804F062FE91
:10C0400088E09DF80730082B12D119230222002125
:10C05000029804F097FA1A2302220821029804F0A9
:10C0600091FA444B02220D21029804F04BFE71E03C
:10C070009DF80730092B12D11B23022200210298C0
:10C0800004F080FA1C2302220821029804F07AFAB4
:10C09000394B02220D21029804F034FE5AE09DF83B
:10C0A00007300A2B12D11B2302220021029804F030
:10C0B00069FA1C2302220821029804F063FA2F4B2C
:10C0C00002220D21029804F01DFE43E09DF8073086
:10C0D0000B2B12D1192302220021029804F052FAEC
:10C0E0001A2302220821029804F04CFA244B02225F
:10C0F0000D21029804F006FE2CE09DF807300C2B71
:10C1000012D11B2302220021029804F03BFA1C23C7
:10C1100002220821029804F035FA1A4B02220D215E
:10C12000029804F0EFFD15E09DF807300D2B11D1BA
:10C13000252302220021029804F024FA2623022259
:10C140000821029804F01EFA0F4B02220D210298DA
:10C1500004F0D8FD00BF05B05DF804FB38EA040028
:10C1600040EA04004CEA040054EA040060EA0400D7
:10C170006CEA04007CEA040088EA040094EA040003
:10C18000A4EA0400B0EA0400BCEA040000B585B0EB
:10C19000019000910198FCF7CDFD03468DF80F301A
:10C1A0009DF80F30484AA2FB03231B09DAB2019B1A
:10C1B00083F8E422019B93F8E432013B042B0DD871
:10C1C00001A252F823F000BF03C2020029C20200FC
:10C1D0004FC2020075C202009BC20200212302224C
:10C1E0009021009804F0CEF9202302229821009893
:10C1F00004F0C8F9182302229F21009804F0C2F924
:10C200005EE01D2302229021009804F0BBF9202358
:10C2100002229821009804F0B5F9182302229F21E8
:10C22000009804F0AFF94BE0162302229021009809
:10C2300004F0A8F9202302229821009804F0A2F922
:10C24000182302229F21009804F09CF938E016235D
:10C2500002229021009804F095F91F2302229821D0
:10C26000009804F08FF9182302229F21009804F00F
:10C2700089F925E0162302229021009804F082F922
:10C280001E2302229821009804F07CF91823022230
:10C290009F21009804F076F912E0162302229021E3
:10C2A000009804F06FF9172302229821009804F0F7
:10C2B00069F9182302229F21009804F063F900BF56
:10C2C00000BF05B05DF804FBCDCCCCCC10B586B07A
:10C2D0000390029111461A460B46ADF806301346FC
:10C2E000ADF80430039BD3F818320593059B42F256
:10C2F0000F7293421BD9BDF80630D8B2BDF8043096
:10C30000DCB2059B4A4AA2FB0323590B494BA3FB12
:10C310000123DA0813469B0013445B00CA1AD3B208
:10C320003033DBB222460146029804F0EBF9059B5C
:10C33000B3F57A7F1DD3BDF80630DBB20733D8B230
:10C34000BDF80430DCB2059B3B4AA2FB03239909EC
:10C35000384BA3FB0123DA0813469B0013445B0010
:10C36000CA1AD3B23033DBB222460146029804F037
:10C37000C9F9059B632B1DD9BDF80630DBB20E331E
:10C38000D8B2BDF80430DCB2059B2C4AA2FB0323D3
:10C390005909284BA3FB0123DA0813469B001344D9
:10C3A0005B00CA1AD3B23033DBB222460146029890
:10C3B00004F0A8F9059B092B1DD9BDF80630DBB2A6
:10C3C0001533D8B2BDF80430DCB2059B194AA2FB84
:10C3D0000323D908174BA3FB0123DA0813469B005C
:10C3E00013445B00CA1AD3B23033DBB22246014693
:10C3F000029804F087F9BDF80630DBB21C33D8B2DE
:10C40000BDF80430DCB205990A4BA3FB0123DA081E
:10C4100013469B0013445B00CA1AD3B23033DBB21D
:10C4200022460146029804F06DF900BF06B010BD27
:10C430005917B7D1CDCCCCCCD34D62101F85EB5161
:10C4400000B5A1B00390029111461A460B46ADF813
:10C4500006301346ADF8043000231F93039BD3F836
:10C460001832ADF87A30BDF87A3007EE903AF8EE2F
:10C47000677ACDED1D7A9DED1D7ADFED116AC7EE6D
:10C48000267ACDED1D7A04AB64220021184620F0F7
:10C49000CAFB1D981EF078FE02460B4604A8094907
:10C4A00020F00AF9BDF80630D9B2BDF80430DAB28E
:10C4B00004AB029804F059FC00BF21B05DF804FB06
:10C4C00000007A44C4EA040000B5A1B003900291D0
:10C4D00011461A460B46ADF806301346ADF8043047
:10C4E00000231F9305AB64220021184620F09BFB1C
:10C4F00000231E930CE0039A1E9B6C335B001344D5
:10C500005B891A461F9B13441F931E9B01331E9386
:10C510001E9B092BEFDD1F9B174AA2FB0323DB08A1
:10C520001F931F9B9AB2039BA3F8AA21039BB3F806
:10C53000AA31632B05D9039BB3F8AA31B3F57A5F0F
:10C540000AD9BDF80630D9B2BDF80430DAB20B4BC7
:10C55000029804F00AFC0AE0BDF80630D9B2BDF832
:10C560000430DAB2064B029804F0FFFB00BF00BFB4
:10C5700021B05DF804FB00BFCDCCCCCCD4EA0400E4
:10C58000E4EA040000B5A1B00390029111461A46F6
:10C590000B46ADF806301346ADF8043000231F9368
:10C5A00005AB64220021184620F03DFB00231E93BA
:10C5B0000CE0039A1E9B6C335B0013445B891A46A4
:10C5C0001F9B13441F931E9B01331E931E9B092B1D
:10C5D000EFDD1F9B1D4AA2FB0323DB081F931F9B5C
:10C5E0009AB2039BA3F8AA21039BB3F8AA31632B49
:10C5F00005D9039BB3F8AA31B3F57A5F0AD9BDF820
:10C600000630D9B2BDF80430DAB2114B029804F00A
:10C61000ACFB16E0039BD3F8DC3018461EF0B4FDEB
:10C6200002460B4605A80B4920F046F8BDF8063037
:10C63000D9B2BDF80430DAB205AB029804F095FB2C
:10C6400000BF00BF21B05DF804FB00BFCDCCCCCC57
:10C65000F4EA040004EB040000B583B001900091FB
:10C66000CE23082200990198FEF7F0FDF42308225A
:10C6700000990198FEF734FEE823092200990198F9
:10C68000FEF77EFEDE23082200990198FEF7F6FEF3
:10C69000DC23842200990198FFF79EF900BF03B0C4
:10C6A0005DF804FB00B585B00390029111461A466F
:10C6B0000B46ADF806301346ADF80430BDF8063031
:10C6C000D9B2BDF80430DAB2034B029804F04DFB46
:10C6D00000BF05B05DF804FB14EB040000B587B0A3
:10C6E0000390029111461A460B46ADF806301346E8
:10C6F000ADF8043000238DF81730FEF7DBFC03465D
:10C700008DF817309DF81730FF2B0AD1BDF8063091
:10C71000D9B2BDF80430DAB2104B029804F025FB10
:10C7200018E09DF81730012B0AD1BDF80630D9B2B8
:10C73000BDF80430DAB20A4B029804F016FB09E0A7
:10C74000BDF80630D9B2BDF80430DAB2054B029814
:10C7500004F00BFB00BF07B05DF804FB24EB040002
:10C7600034EB040044EB040000B587B00390029161
:10C7700011461A460B46ADF806301346ADF80430A4
:10C7800000238DF8173019490398FCF77BFA03460C
:10C790008DF817309DF81730FF2B0AD1BDF8063001
:10C7A000D9B2BDF80430DAB2114B029804F0DDFAC8
:10C7B00018E09DF81730012B0AD1BDF80630D9B228
:10C7C000BDF80430DAB20B4B029804F0CEFA09E05F
:10C7D000BDF80630D9B2BDF80430DAB2064B029883
:10C7E00004F0C3FA00BF07B05DF804FB0432002078
:10C7F00054EB040064EB040074EB040000B59FB03C
:10C800000390029111461A460B46ADF806301346C6
:10C81000ADF8043005AB64220021184620F003FA7D
:10C82000039BB3F9B03140F2DC5293420CDD039B21
:10C83000B3F9B03140F6AB52934205DC05AB0C497D
:10C8400018461FF039FF04E005AB0A4918461FF0EF
:10C8500033FFBDF80630D9B2BDF80430DAB205AB0B
:10C86000029804F082FA00BF1FB05DF804FB00BF1D
:10C8700084EB040094EB040000B59FB00390029198
:10C8800011461A460B46ADF806301346ADF8043093
:10C89000039BB3F9B03107EE903AF8EEE77ACDEDAD
:10C8A0001D7A9DED1D7ADFED1E6AC7EE267ACDED6D
:10C8B0001D7A04AB64220021184620F0B4F9039BD2
:10C8C000B3F9B03140F2DC5293421ADD039BB3F965
:10C8D000B03140F6AB52934213DC1D981EF054FC6D
:10C8E00002460B4604A80F491FF0E6FEBDF80630CD
:10C8F000D9B2BDF80430DAB204AB029804F035FACC
:10C900000AE0BDF80630D9B2BDF80430DAB2064B01
:10C91000029804F02AFA00BF00BF1FB05DF804FBC4
:10C920000000C842A4EB0400B4EB040030B587B0AB
:10C930000390029111461A460B46ADF80630134695
:10C94000ADF80430BDF80630ADF81630BDF804304F
:10C95000ADF81430BDF81630D9B2BDF81430DAB2E3
:10C96000684B029804F0CEF9039BB3F9B03142F260
:10C970001072934218DDBDF81630DBB22E33D9B2F7
:10C98000BDF81430D8B2039BB3F9B0315E4A82FBD4
:10C9900003421213DB17D31A1BB2DBB23033DBB204
:10C9A0000246029803F0AEFE039BB3F9B031002BB0
:10C9B00009DABDF81630D9B2BDF81430DAB22D2339
:10C9C000029803F09FFEBDF81630DBB23533DCB2BF
:10C9D000BDF81430DDB2039BB3F9B03118461FF037
:10C9E00035FC0346494A82FB03129211DB17D21A27
:10C9F000474B83FB02139910D317C91A0B469B00B0
:10CA00000B445B00D11ACBB23033DBB22A4621464D
:10CA1000029803F077FEBDF81630DBB23C33DCB28F
:10CA2000BDF81430DDB2039BB3F9B03118461FF0E6
:10CA30000DFC0346374A82FB03125211DB17D21A50
:10CA4000334B83FB02139910D317C91A0B469B0073
:10CA50000B445B00D11ACBB23033DBB22A462146FD
:10CA6000029803F04FFEBDF81630DBB24333D9B263
:10CA7000BDF81430DAB2284B029804F043F9BDF83F
:10CA80001630DBB24A33DCB2BDF81430DDB2039BA2
:10CA9000B3F9B03118461FF0D9FB03461C4A82FB9C
:10CAA00003129210DB17D21A194B83FB0213991051
:10CAB000D317C91A0B469B000B445B00D11ACBB2AB
:10CAC0003033DBB22A462146029803F01BFEBDF844
:10CAD0001630DBB25133D9B2BDF81430DAB20F4B95
